:10000000A8420020C5200000C38B0000B1200000E2
:10001000B1200000B1200000B1200000B12000009C
:10002000000000000000000000000000312200007D
:10003000B120000000000000C9210000B120000034
:10004000D5230000D5230000D5230000D5230000D0
:10005000D5230000D5230000D5230000D5230000C0
:10006000D5230000D5230000D5230000D5230000B0
:10007000D5230000D5230000D5230000D5230000A0
:10008000D5230000D5230000D5230000D523000090
:10009000D5230000D5230000D5230000D523000080
:1000A000D5230000D5230000D5230000D523000070
:1000B000D5230000D5230000D5230000D523000060
:1000C000D5230000D5230000D5230000D523000050
:1000D000D5230000D5230000D5230000D523000040
:1000E000D5230000D5230000D5230000D523000030
:1000F000D5230000D5230000D5230000D523000020
:10010000D5230000D5230000D5230000D52300000F
:10011000D5230000D5230000D5230000D5230000FF
:10012000D5230000D5230000D5230000D5230000EF
:10013000D5230000D5230000D5230000D5230000DF
:10014000D5230000D5230000D5230000D5230000CF
:10015000D523000053B94AB9002908BF00281CBFA5
:100160004FF0FF314FF0FF3000F00CB8ADF1080C4C
:100170006DE904CE00F012F8DDF804E0DDE90223B9
:1001800004B07047704700BF10F8012B11F8013B15
:10019000012A28BF9A42F7D0D01A70472DE9F047BC
:1001A00086468C460846089E154674461946002B1E
:1001B00040F0C1808542B2FA82F245D94AB1C2F11B
:1001C000200300FA02FC954094402EFA03F343EA20
:1001D0000C0C4FEA154EA8B2230CBCFBFEF80EFB2C
:1001E00018CC08FB00F943EA0C43994528D9EB18D1
:1001F00008F1FF3704D2994502D9A8F102072B4430
:10020000A3EB0903A4B2B3FBFEFC0EFB1C330CFBF7
:1002100000F044EA0344A04214D92C190CF1FF3336
:1002200004D2A04202D9ACF102032C44241A43EABE
:1002300007401EB1D440002334607360BDE8F087EE
:100240004746DDE76346F1E792BB431B01214FEAD6
:10025000154EAFB2200CB3FBFEFC0EFB1C330CFBA7
:1002600007F840EA0343984561D9EB180CF1FF30D9
:1002700004D2984502D9ACF102002B44A3EB080349
:10028000A4B2B3FBFEFC0EFB1C330CFB07F744EAE5
:100290000344A7424DD92C190CF1FF3304D2A742D5
:1002A00002D9ACF102032C44E41B43EA0040C0E74E
:1002B000C2F120039540944020FA03F12EFA03F393
:1002C0004FEA154E9040AFB20343B1FBFEFC0EFB6C
:1002D0001C10190C0CFB07F841EA0041884522D993
:1002E00069180CF1FF3004D2884502D9ACF1020044
:1002F0002944A1EB08019BB2B1FBFEFC0EFB1C11D3
:100300000CFB07F743EA01439F420ED9EB180CF1AF
:10031000FF3104D29F4202D9ACF102012B44DB1B16
:1003200041EA004193E76046E3E76146F7E760464C
:10033000A4E76346B8E7834206D916B90021084608
:100340007CE7C6E900E0F9E7B3FA83F78FB98342A7
:1003500001D3724508D8BEEB020460EB0303012011
:100360009C461EB9002169E73846FAE7C6E9004C09
:10037000F8E7C7F1200CBB400EFA07F522FA0CF49F
:100380002EFA0CF1BA401C4320FA0CF3B8404FEAA5
:10039000144901431FFA84FEB3FBF9F809FB183036
:1003A0000B0C08FB0EFA43EA00439A4540D9E318C8
:1003B00008F1FF3004D29A4502D9A8F10200234483
:1003C000A3EB0A0389B2B3FBF9F809FB183308FB66
:1003D0000EFE41EA03418E452CD9611808F1FF3326
:1003E00004D28E4502D9A8F10203214443EA004019
:1003F000A1EB0E01A0FB02984145CE46434602D335
:1004000006D14D4504D20138B9EB020E68EB040366
:10041000002EA7D0B5EB0E0261EB030101FA0CFC34
:1004200022FA07F3F9404CEA0303C6E9003199E7E1
:100430004046C5E74346D9E7F8B50A4E0A4D0B4F8B
:100440004FF0FF334FF0FF32304605F017FB2B78AB
:1004500004461BB1011D384608F01EFB204608F07B
:10046000E6FEEDE784010020C0000020EC9B0000C8
:1004700003460A462DE9F0411979DB8800681343E9
:1004800003F03002302A0669D0E901470ED1324923
:1004900040F2E233314A324808F014FB314808F0A8
:1004A00011FB40F2E2312D4808F003FB2E4A2F4D9C
:1004B0001A40AA420CD12E4940F2E633274A284876
:1004C00008F000FB2B4808F0FDFA40F2E631EAE7BD
:1004D00003F00602042A09D1274940F2E9331F4AF2
:1004E0001F4808F0EFFA40F2E931DCE713F4402F3F
:1004F00013D09A030CD421494FF47B73174A184840
:1005000008F0E0FA1E4808F0DDFA4FF47B71CAE704
:100510001C4A9A4308BF83F44023012524688D4078
:10052000254223F480120CD117494FF47F730B4AF4
:100530000B4808F0C7FA154808F0C4FA4FF47F7169
:10054000B1E73468DB074CBF2C43AC4334603B68F5
:10055000BDE8F041184700BF209C0000EF9B000061
:10056000599C0000769C000002000300020001007C
:10057000B39C0000FA9C0000499D00007C9D000097
:10058000C29D000001001000FD9D00003B9E000088
:100590000FB413B5542007F019FA044678B910487F
:1005A00008F07AFA0F4984230F4A104808F08AFAB3
:1005B0000F4808F087FA84210B4808F07AFA05AB57
:1005C000049A50210430019308F050F8214609485C
:1005D00008F0B0FD02B0BDE8104004B0704700BFA5
:1005E0004D9E0000C09D0000629E0000599C0000CE
:1005F0007E9E000084010020034670B500681979D2
:10060000836845689C69026904B301232D688B40A7
:100610002B420ED10F4940F293330F4A0F4808F096
:1006200051FA0F4808F04EFA40F293310A4808F0A8
:1006300040FA1268A446BDE87040134214BF4FF060
:1006400000734FF080634FF0A07260476FF0570067
:1006500070BD00BFFD9D0000EF9B0000599C000095
:100660003B9E0000044BD3E8EF1F0131C3E8E21FBB
:10067000002AF8D1704700BF7808002001460348DF
:100680008368DB690BB1012218477047549500005D
:10069000034610B50A4619790123006803FA01F1EF
:1006A000436804691B6819420ED10E4940F28D63FC
:1006B0000D4A0E4808F006FA0D4808F003FA40F219
:1006C0008D61094808F0F5F92368194218BF82F0D6
:1006D000010222B18368DB68BDE8104018478368D7
:1006E0001B69F9E7FD9D0000EF9B0000599C00008D
:1006F0003B9E000008B500210648FFF7C9FF012115
:100700000548FFF7C5FFBDE8084000210348FFF793
:10071000BFBF00BF109A0000089A0000009A0000B6
:1007200008B501210648FFF7B3FF01210548FFF78F
:10073000AFFFBDE8084000210348FFF7A9BF00BF95
:10074000109A0000089A0000009A000008B5FFF710
:1007500089FF084BD3E8AF1F074808F09DF9002335
:10076000064A1370064A1370064A1370BDE8084023
:10077000FFF7D6BF78080020999E0000EF1D0020EB
:10078000EE1D0020ED1D002008B501210648FFF7F1
:100790007FFF00210548FFF77BFFBDE808400021EF
:1007A0000348FFF775BF00BF109A0000089A0000C9
:1007B000009A000008B500210648FFF769FF0021F4
:1007C0000548FFF765FFBDE8084000210348FFF733
:1007D0005FBF00BF109A0000089A0000009A000056
:1007E0002DE9F04600248DB0364F2022214604A882
:1007F0008DF80F4008F039FDBB68334EDFF8CC9020
:100800000193019B1B682BB138460DF10F019847EE
:10081000054628B125460A2007F053FF2C46F0E78D
:100820009DF80F300D2B01D00A2B32D1002CF2D0C5
:100830004FF0000A04F130030DEB0304304604A925
:1008400004F820ACFFF7A4FE242007F0BFF804460C
:1008500070B91F494FF4A9731E4A1F4808F032F9B6
:100860001E4808F02FF94FF4A9711A4808F021F931
:100870001F2204A9043008F000FD2146484684F8F0
:1008800023A008F057FC2022514604A808F0EDFCF4
:10089000C1E71E2C06DC04F130026A4402F8203C59
:1008A000651CB8E70E48FFF773FE0E4940F2691366
:1008B000084A094808F006F90B4808F003F940F225
:1008C0006911D2E774950000CC9E000098010020C9
:1008D000DA9E0000629E0000599C0000ED9E000020
:1008E000079F0000C09D00001E9F000008B5FFF795
:1008F000B9FE0C4BD3E8AF1F0B4808F0CDF80B4AFC
:10090000137883F00103137033B1094808F0C4F879
:10091000BDE80840FFF74EBF0648BDE8084008F0B4
:10092000BBB800BF780800204F9F0000EC1D0020DE
:100930007D9F0000949F000008B5FFF793FE0D4BCC
:10094000D3E8AF1F0C4808F0A7F80C4B0C491A78F5
:1009500082F001021A7000220A700A490A701B789C
:100960001BB1BDE80840FFF70FBFBDE80840FFF727
:1009700021BF00BF78080020AC9F0000EF1D0020C1
:10098000EE1D0020ED1D002008B5FFF76BFE0D4B9E
:10099000D3E8AF1F0C4808F07FF80C4B0C491A78CD
:1009A00082F001021A7000220A700A490A701B784C
:1009B0001BB1BDE80840FFF7B3BEBDE80840FFF734
:1009C000F9BE00BF78080020D39F0000EE1D002074
:1009D000EF1D0020ED1D002008B5FFF743FE0D4B75
:1009E000D3E8AF1F0C4808F057F80C4B0C491A78A5
:1009F00082F001021A7000220A700A490A701B78FC
:100A00001BB1BDE80840FFF775BEBDE80840FFF721
:100A1000D1BE00BF78080020FD9F0000ED1D002022
:100A2000EF1D0020EE1D00207FB5354E4FF0FF3248
:100A30004FF0FF33324804F0A3FD00220023314879
:100A400005F01CF80446002837D0304604F068FE54
:100A500001F008FDCDE90001A1682B48FFF798FDE2
:100A6000FFF748FEA06807F02CFEFFF7A3FE27481B
:100A7000FFF78EFD01F0F6FCCDE90201684602A900
:100A800008F0EBF808F0F1F8214AD2E900351B181C
:100A900045EB0105C2E900354FF47A720023FFF7F8
:100AA00059FB02460B461B48FFF772FD1A4805F03A
:100AB00071F8204608F0BBFBB8E74FF0FF324FF06B
:100AC000FF333146154805F013FA002200230D4884
:100AD00004F0D4FF0446304604F022FE002CB7D1C7
:100AE0000F4940F265230F4A0F4807F0EBFF0F480C
:100AF00007F0E8FF40F265210A4807F0DAFF00BF7F
:100B0000FC000020AC0100206EA0000080A00000CE
:100B1000200600208BA0000074010020E8010020C6
:100B200026A00000629E0000599C000039A0000031
:100B30007FB5354E4FF0FF324FF0FF33324804F0AF
:100B40001FFD00220023314804F098FF04460028CE
:100B500037D0304604F0E4FD01F084FCCDE900011B
:100B6000A1682B48FFF714FDFFF7DAFDA06807F036
:100B7000A8FDFFF71FFE2748FFF70AFD01F072FCF2
:100B8000CDE90201684602A908F067F808F06DF89F
:100B9000214AD2E900351B1845EB0105C2E90035B1
:100BA0004FF47A720023FFF7D5FA02460B461B4832
:100BB000FFF7EEFC1A4804F0EDFF204608F037FB83
:100BC000B8E74FF0FF324FF0FF333146154805F0DC
:100BD0008FF9002200230D4804F050FF04463046F0
:100BE00004F09EFD002CB7D10F4940F239230F4A83
:100BF0000F4807F067FF0F4807F064FF40F2392104
:100C00000A4807F056FF00BF60010020D401002011
:100C1000DFA00000F2A0000020060020FEA00000DF
:100C200074010020F801002026A00000629E000050
:100C3000599C0000A9A000007FB5354E4FF0FF324F
:100C40004FF0FF33324804F09BFC00220023314870
:100C500004F014FF0446002837D0304604F060FD4D
:100C600001F000FCCDE90001A1682B48FFF790FCE2
:100C7000FFF78AFDA06807F024FDFFF79BFD2748DA
:100C8000FFF786FC01F0EEFBCDE90201684602A900
:100C900007F0E3FF07F0E9FF214AD2E900351B180E
:100CA00045EB0105C2E900354FF47A720023FFF7E6
:100CB00051FA02460B461B48FFF76AFC1A4804F03B
:100CC00069FF204608F0B3FAB8E74FF0FF324FF063
:100CD000FF333146154805F00BF9002200230D487B
:100CE00004F0CCFE0446304604F01AFD002CB7D1C7
:100CF0000F4940F20F230F4A0F4807F0E3FE0F4859
:100D000007F0E0FE40F20F210A4807F0D2FE00BFD4
:100D100024010020C001002050A1000060A10000BB
:100D20002006002069A1000074010020F0010020CD
:100D300026A00000629E0000599C00001DA100003A
:100D40002DE9F04FAB4FDFF8B082DFF8B09287B0FB
:100D50004FF0FF324FF0FF33384604F08FFE044669
:100D60000028F5D001F07EFB04F1040ACDE9020170
:100D700051464046FFF70CFC49465046FFF704FA3F
:100D800090B99F4B9F481A7882F001021A70197827
:100D90009D4A9E4B00290CBF1146194607F07CFE68
:100DA000204608F044FAD3E750469949FFF7ECF99A
:100DB000984E0546002856D19748FFF7E9FBDFF823
:100DC0005CA2DFF85CB23368AB4211DC954D4FF4A6
:100DD0007A72D5E900010023FFF7BCF902460B4601
:100DE0009148FFF7D5FB00220023C5E90023D7E790
:100DF0000C2006F0EBFD014670B98C494FF4D4731A
:100E00008B4A8C4807F05EFE8B4807F05BFE4FF480
:100E1000D471874807F04DFE9AF804300371DAF870
:100E20000820522B826008D0592B17D0472B0AD1AB
:100E3000824808F07FF9824803E0824808F07AF996
:100E4000814807F03CFC4FF0FF324FF0FF3358462B
:100E500004F01EFF01350AF10C0AB4E77B4808F0E4
:100E600069F97B48EDE700238DF803304FF47A737E
:100E700001932379542B02D16379002B4CD0504637
:100E8000744901AB0DF1030206F0C6FF02280AD136
:100E90009DF80330473BDBB2122B04D86E4A42FA6E
:100EA00003F3D90711D52179A1F14703DBB2122B46
:100EB00032D8694A42FA03F3DA072DD463795BBB6F
:100EC0004FF47A738DF803100193019A9DF8031083
:100ED0006248FFF75DFB3368FF2B2FDC0C214F4A84
:100EE00001FB03229DF80310013311710199336056
:100EF00091600C2006F06AFD0146002832D14B4972
:100F000040F2D9134A4A4B4807F0DCFD544807F039
:100F1000D9FD40F2D9117CE751465248FFF738FB22
:100F200040F2C913424A5049424807F0CBFD5146AE
:100F30004E4807F0C7FD40F2C9116AE74C48FFF779
:100F400027FB3368B3F5807FD3DD4A4940F2D713DE
:100F5000374A384807F0B6FD474807F0B3FD40F27E
:100F6000D71156E79DF80330019A522B0371826026
:100F700008D0592B35D0472B38D1304808F0DAF853
:100F80002F4803E02F4808F0D5F82F4807F097FBCB
:100F900001F068FACDE9040104A902A807F05DFE9A
:100FA00007F063FE4FF47A720023FFF7D3F802468E
:100FB0000B463248FFF7ECFA9DF80330473BDBB2B3
:100FC000122B3FF6EDAE244A42FA03F3DB073FF55E
:100FD000E7AE4FF0FF324FF0FF33114804F058FEF8
:100FE000DEE61A4808F0A6F81948CFE708F01FF91E
:100FF000CEE700BF9801002096A100008BA1000061
:10100000C0000020AFA100008DA1000085A100005C
:1010100038AE00007C080020C0A10000800800203D
:10102000740100202006002006A2000026A0000077
:10103000629E0000599C0000DDA10000AC01002070
:10104000E8010020C0010020F0010020D4010020B0
:10105000F801002024A20000FEF7FBFF67A20000B9
:10106000D4A200002AA20000C09D00003FA2000000
:101070008CA20000A2A20000B9A2000003A30000FD
:1010800008B5074807F0E1FF28B9064807F004FD56
:101090004FF0FF3008BD044807F0FEFC0020F9E7E0
:1010A0007495000024A300003EA3000010B544483E
:1010B00007F01AFB30B9434807F0EEFC4FF0FF345D
:1010C000204610BD4FF480313F48FFF7D1F908B1F9
:1010D0003E48F1E73C48FFF78FFA0028EED13C4844
:1010E0003C4B436004238360FFF7C8FA344807F0A1
:1010F000FBFA08B93848DFE74FF480313748FFF78B
:10110000B7F90028DAD13548FFF776FA0028D5D1AB
:101110003348344B436008238360FFF7AFFA284815
:1011200007F0E2FA08B93048C6E74FF480312F489B
:10113000FFF79EF90028C1D12C48FFF75DFA00287F
:10114000BCD12B482B4B436010238360FFF796FAEA
:101150001B4807F0C9FA08B92748ADE74FF48031BA
:101160002648FFF785F90028A8D12448FFF744FA5C
:101170000028A3D12248234B436040238360FFF71C
:101180007DFA0F4807F0B0FA08B91F4894E74FF40A
:1011900080311E48FFF76CF900288FD11B48FFF7FC
:1011A0002BFA0446002889D119481A4B43602023A2
:1011B0008360FFF763FA184807F06EFC80E700BF12
:1011C0005495000050A30000F89900006EA30000A1
:1011D000B0140020ED08000090A30000F09900007A
:1011E000A414002039090000AEA30000E899000013
:1011F0009814002089090000CCA30000E0990000A9
:101200008C140020D9090000EAA30000D89900003E
:10121000801400204D07000008A4000008B501F06C
:1012200011FD01F01BFD2C4807F05EFA20B92B4898
:1012300007F032FC002008BD274807F055FA0028C7
:10124000F5D0254807F050FA0028F0D04FF4B0113F
:101250002348FFF70DF908B12248E9E74FF4B01130
:101260002148FFF705F908B12048E1E74FF4B01134
:101270001F48FFF7FDF808B11E48D9E7FFF79AFAB3
:10128000FFF7FEFE08B11C48D2E7FFF70FFF00286A
:1012900001DA1A48CCE71A4807F0FEFB194807F0B4
:1012A000FBFB194807F0F8FB184807F0F5FB184856
:1012B00007F0F2FB174807F0EFFB174807F0ECFBCD
:1012C000164807F0E9FB164807F0E6FB154807F05B
:1012D000E3FB0C48ACE700BF5495000021A40000DC
:1012E000109A000038A40000089A000056A40000DC
:1012F000009A000076A4000095A40000B1A40000AC
:10130000F7B30000CFA40000EFA400000BA500007D
:101310002CA5000049A5000051A5000058A500001B
:1013200060A5000063A50000F8B50F4600293BD07A
:1013300006680122304607F011FA0146044630469D
:1013400007F0D4F9C3070DD4AF23184A1849194838
:1013500007F0B8FB3946184807F0B4FBAF21134833
:1013600007F0A7FB2146304607F0D6F92518294695
:101370000022304607F0BAF92D1AAC420BD0B72341
:101380000A4A0E490B4807F09DFB39460C4807F006
:1013900099FBB721E3E72146304607F0C3F9214620
:1013A000BDE8F84007F0FFBAF8BD00BFCDA50000CA
:1013B000F0A50000599C000001A6000039A600001D
:1013C0005FA60000B2F5802F2DE9F04110D2042A6B
:1013D00028D843494FF40773424A434807F072FB49
:1013E000424807F06FFB4FF407713E4807F061FB7E
:1013F0000823D21ACC1D114424F0070421F0070160
:10140000091B17294FEAD1060ED8394940F2252386
:10141000344A354807F056FB344807F053FB40F296
:101420002521E2E70423E4E7002704603146304643
:10143000A660E76007F0A5F90121421D804630460D
:1014400007F096F99200D51DED082844B0423AD82D
:10145000B8F1FF3F3946A2F1100204F11000B8BF05
:101460003A4607F002FF2A463946204607F072F94D
:101470003B463A463946204607F043F9A6EB0508B5
:1014800020463946012207F04DF94246294607F029
:1014900061F92B463A462946204607F032F9314693
:1014A000204607F057F943463A463146204607F0B2
:1014B00028F931462046012207F034F92946BDE8D3
:1014C000F04107F02EBA0B4940F23A23054A06488C
:1014D00007F0F8FA054807F0F5FA40F23A2184E7F8
:1014E0009BA60000CDA50000599C0000BCA60000F2
:1014F000D5A60000FEA60000014B1B68184700BFE0
:1015000000000020014B1860704700BF0000002061
:1015100030B585B004460D4610220021684607F01C
:10152000A4FE02238DF80230044B2A462146684669
:10153000019306F091FC05B030BD00BFF914000026
:1015400080B505460E461746984605F0A1FC0346B1
:1015500007F09EFF0446DFF81890424649F8003035
:1015600039463046A84754F8090000F017FE00BF7E
:10157000080000002DE9F84F0446A38B0846190720
:10158000154612D4022803F0070165D1204607F062
:10159000A6FA88B10138042800F23781DFE810F09C
:1015A0005C0035018200D400040101280CBF43F027
:1015B000100143F02001A1831434204605F07CFE85
:1015C000002840F09D819A4940F23113994A9A4887
:1015D00007F078FA2146B1E003F00702501F012816
:1015E0001ED80020062A2768C4E9000014D13A4614
:1015F00003E0E08B0130E0831268002AF9D123F088
:10160000070343F002022046A28307F068FA90B372
:1016100042F02002A2832EE023F007039AB2F2E701
:10162000042A33D123F007039AB22046A28307F09D
:1016300056FA10B142F02002A283A38B03F00709EF
:10164000894540F0EC80A18BCA0640F1508121F021
:101650001003A38301F00701D4F81880A38BB8F11D
:10166000000FB9DA0022276823F00703C4E900223B
:1016700043F00103A383A38B03F00709894540F0DE
:10168000CF80002FDFD00026B24644E06B4940F205
:101690001B136B4A684807F015FA40F21B116848A3
:1016A00007F007FA49B167494FF4AB73644A6248DF
:1016B00007F008FA4FF4AB71F1E723684BB96249C0
:1016C00040F257135E4A5C4807F0FCF940F25711AC
:1016D000E5E723691E684EB95C494FF4AD73584A7B
:1016E000554807F0EFF94FF4AD71D8E70F4688463B
:1016F0004FF00609A38B23F0070343F006039BB2C8
:10170000A383A268002A40F08D80002F40F08D80D6
:10171000002E98D0BA4643F0080304F1140B584643
:10172000A38305F0C9FD002840F09A80404940F2AB
:101730003113404A404807F0C5F95946444807F07C
:10174000C1F940F23111ADE0022909D0414940F21E
:101750005D133B4A384807F0B5F940F25D119EE74A
:10176000E78B4FB13C494FF4AF73354A324807F02D
:10177000A9F94FF4AF7192E723695E684EB9334916
:1017800040F261132E4A2C4807F09CF940F2611197
:1017900085E7A38BB84623F0070343F004039BB20D
:1017A0004FF00409A383ACE7012909D02B494FF47A
:1017B000B273234A204807F085F94FF4B2716EE7FF
:1017C00023684BB9204940F265131D4A1A4807F0B7
:1017D00079F940F2651162E723699E684EB91B49A9
:1017E0004FF4B473164A144807F06CF94FF4B4710F
:1017F00055E70027A38BB84623F0070343F0050302
:101800009BB24FF00509A3837BE70C4940F26B13B1
:101810000B4A094807F056F940F26B113FE70027E1
:1018200000266EE74FF0010A75E7924673E700BFA6
:10183000FCA70000CFA70000599C0000C09D00003D
:1018400029A700004EA700005AA700007DA70000AE
:1018500013A8000094A70000AAA70000B9A70000E1
:1018600085F31188BFF36F8FBAF1000F1CD177BBDE
:1018700016B120462549B047EFF31185202383F3A5
:101880001288BFF36F8F584605F008FD38BB8823D8
:101890001F4A2049204807F015F959461F4807F00C
:1018A00011F988211A48FBE6A1680029DFD00D68EC
:1018B0000029DCD043464A462046D1F804A0D04750
:1018C0001DB12B6829461D46F2E72B46FAE739463B
:1018D00043464A4620463F6807F02DF9C7E7584679
:1018E00005F000FDA38B23F00803A383ABE68B0672
:1018F0007FF562AE21F02003A38301F0070145E6E6
:1019000085F31188BFF36F8FBDE8F88F21190000B0
:10191000CFA7000028A80000599C00003DA80000A7
:10192000F8B504460D4600F11406EFF311872023A5
:1019300083F31288BFF36F8F304605F0AFFC68B9B0
:1019400088230C4A0C490D4807F0BCF831460C4876
:1019500007F0B8F88821074807F0ABF8304605F0E3
:10196000C1FCA5613A462046BDE8F8400121FFF7D9
:1019700001BE00BFCFA7000028A80000599C0000AE
:101980003DA800002DE9F04704460F4607F0C3F8D4
:10199000051E68DB04F11409EFF3118A202383F399
:1019A0001288BFF36F8F484605F078FC804660B917
:1019B0008823384A3849394807F084F84946384876
:1019C00007F080F88821334842E0484605F08AFC59
:1019D0004FF6FF72E38BA68B934206F0070645D0C5
:1019E000022E15D135460133E383484605F064FCE9
:1019F000002841D140F23113264A2A49274807F0EE
:101A000061F84946284807F05DF840F23111DAE7FD
:101A1000062E13D8DFE806F0092D1212090409007A
:101A20006FF085054FF00008DFE700233B60636837
:101A300083B9C4E9007786B13546F3E71B491748F7
:101A40004FF4E4731A4A07F03DF84FF4E471184874
:101A500007F02FF81F606760EDE75246022120462D
:101A6000FFF788FD35462846BDE8F0876FF00A0588
:101A7000D8E76FF00405D5E78AF31188BFF36F8FBD
:101A8000B8F1000FEFD0002332463946204607F068
:101A900052F8E8E7CFA7000028A80000599C0000F2
:101AA0003DA80000FCA7000013A80000B9A7000093
:101AB00029A7000008B54268034602F00302032A82
:101AC000816002D02AB1002000E0006800225A6044
:101AD00008BD054905484523054A06F0F3FF4521A1
:101AE000034806F0E6FF00BFC09D0000599C0000BF
:101AF00053A80000014B036000207047189A0000B3
:101B000008B5044806F0C8FFBDE80840024806F0E2
:101B1000C3BF00BF79A80000AEA80000014806F0CE
:101B200039B800BF189A000038B5044618B90F4BF1
:101B30000F485B6898476168B1F5683F10D0B1F510
:101B4000680F0DD00B4DA9420AD011F468612068CE
:101B500007D00146084803F033FC0023236065608A
:101B600038BD142207F081FBF9E700BF60000020B8
:101B7000DCA800002C5F5CA9BC19002008B560B38C
:101B80004368B3F5683F0ED0B3F5680F18D0144A18
:101B9000934220D000684FF0FF324FF0FF3303F044
:101BA000EFFC58B115E001220368D3E8EF1F0029CC
:101BB00003D1C3E8E02F0028F7D10AD1002008BDE7
:101BC0000368084A1B7803F5807352F82330002B12
:101BD000F4D00548F3E70548F1E76FF4E040EEE79D
:101BE0002C5F5CA900000350E98FFFFFEA8FFFFF25
:101BF00008B520B34368B3F5683F09D0B3F5680F63
:101C000013D0114A93421DD0006803F089FD14E0FF
:101C100000220368D3E8EF1F012903D1C3E8E02FB6
:101C20000028F7D109D0094808BD00210368084AF7
:101C30001B7803F5807342F823100020F4E76FF45B
:101C4000E040F1E70348EFE72C5F5CA9E98FFFFF75
:101C500000000350EA8FFFFF10B5044618B91D4B72
:101C60001D485B6898476368B3F5683F2FD0B3F5AC
:101C7000680F2CD0194A934219D1236803BB4FF047
:101C8000FF324FF0FF332146154803F00DFB08B932
:101C900023681BB90F4B13485B6898471422002137
:101CA000206807F0E2FA4FF46863636008E0B3F578
:101CB000683F0DD83A2B03D040F6BA629342DED18A
:101CC000206807F024FA636843F03A03636010BDAC
:101CD000054AF3E760000020DCA800002C5F5CA947
:101CE000BC19002002A900003A00003A08B50649D4
:101CF00040231422054807F0F3F9BDE808400449E1
:101D0000044805F0B9BF00BFBC140020BC19002076
:101D1000209A0000349A000030BFFFF7FDBF00BFDB
:101D20002DE9F04105460B4EDFF82C80324606EBDC
:101D30000807CC1B2046094907F08AFAA019424639
:101D40000021083C07F091FAC5F8A44007F108000B
:101D5000BDE8F0810000000004000000CC99000004
:101D6000054B5A699B689A421FBF044A536843F067
:101D700080535360704700BFCC1B002000ED00E093
:101D8000154B9A6A12F0007F9A6A14BF1E201D201C
:101D900012F0807F9A6A18BF1F2012F4801F9A6A7F
:101DA00018BF022012F4002F9A6A18BF212012F4E3
:101DB000802F9A6A18BF222012F4003F9A6A18BF37
:101DC000232012F4803F9A6A18BF24206FEA02424F
:101DD0006FEA12429A62704700ED00E010B5194BAD
:101DE0000246986A9C6A10F4805F14BF1720162080
:101DF00014F4006F9C6A18BF1820A40509D5986BCD
:101E0000986A000404D51AB19A6A22F400429A62D0
:101E100019200C4B9A6A12F4806F9A6A18BF1A2024
:101E2000D2050CD49B6A13F4005F18BF1C20054A2E
:101E3000936A43F47F43936200230B7010BD1B2011
:101E4000F5E700BF00ED00E010B5264B0246986AAA
:101E50009C6A10F0100F14BF1120102014F0080F0E
:101E60009C6A18BF1220A40709D5586B986A00060F
:101E700004D51AB19A6A22F080029A621320194B93
:101E80009A6A12F0010F9A6A18BF142012F0200FFC
:101E90009A6A18BF1520D20602D49B6A9B0712D5F6
:101EA000104B9B6ADC060ED50F494FF495730F4A11
:101EB0000F4806F007FE0F4806F004FE4FF4957138
:101EC0000A4806F0F6FD074B9A6A920642BF5A6A24
:101ED00022F400525A629A6A42F0FF029A62002388
:101EE0000B7010BD00ED00E061A900002FA90000FB
:101EF000599C0000ABA90000F0B55D4B04465B683F
:101F000000258BB0C3F3080385F31188BFF36F8FEF
:101F100002F07F40B0F17F4F08D102F00C0008289A
:101F200004D012074CBF0C46012574B9514940F248
:101F30001143514A514806F0C5FD514806F0C2FD13
:101F400040F211414C4806F0B4FD0022033B8DF8ED
:101F50000720032B00F28480DFE803F0027A7E5D25
:101F6000434AD36A13F002037AD1D16A00291ADBFB
:101F7000D36A5B005FD55369A16943F480735361F1
:101F8000BFF34F8FBFF36F8F536931F8021C23F4F7
:101F900080735361BFF34F8FBFF36F8F4DF60273A2
:101FA000994220D123689DF80720D2B9224602AE7B
:101FB00004F12007344610685168083203C4BA425D
:101FC0002646F7D1099A002D4CD0C2F3080121B959
:101FD0006FEA52226FEA42220992184602A906F0DD
:101FE000E6FD0BB0F0BD936ADBB233B101200DF119
:101FF0000701FFF729FF0346D5E7936A13F47F4FE4
:1020000005D001200DF10701FFF7E8FEF3E7936A21
:10201000B3F5803F02D3FFF7B3FEECE7194940F276
:10202000EA23154A154806F04DFD174806F04AFD0B
:1020300040F2EA2186E7134940F2ED230E4A0F48A9
:1020400006F040FD114806F03DFD40F2ED2179E734
:1020500000200DF10701CCE700200DF10701D3E7C7
:102060000023A0E722F4FF7222F00102B4E700BFD0
:1020700000ED00E00FAA00002FA90000599C00000D
:1020800022AA0000C09D000060AA000084AA0000EF
:10209000064B5A6942F010025A615A6942F4806252
:1020A0005A615A6922F008025A61704700ED00E057
:1020B000EFF30880EFF3098101B57246FFF71CFFCB
:1020C00001BD00BF002080F31488BFF36F8F002094
:1020D00080F30A8880F30B88104880F3088800207A
:1020E0000F49087001F030FF00200E490860BFF36F
:1020F0004F8F00F02DF8202080F311880A484FF40C
:102100000061401880F30988EFF31480022108432E
:1021100080F31488BFF36F8F00F0F8F8A842002016
:10212000F61D002094ED00E06835002000231846DD
:102130000649D1F89020C2F30722934200DB704792
:10214000C1F89830C1F8A0000133F6E700ED00E0D7
:1021500010B572B6002484F31388FFF7E7FF234617
:102160004FF0FF300C4A03F120010133102B42F8ED
:102170002100F8D100234FF0FF30074A03F160013E
:102180000133102B42F82100F8D162B6BFF34F8F14
:10219000BFF36F8F10BD00BF00E100E0084B9B68EC
:1021A00083420BD1EFF3058343B1064B5A6842F0EB
:1021B00080525A605A6A22F400425A6204F06EBE9B
:1021C000CC1B002000ED00E016498A684FF030007B
:1021D0001044EFF3098C80E8F01F202080F3128870
:1021E000BFF36F8F104F4FF000664A698A603E6000
:1021F000D2F8A4000D4C2060D2F8A8000023C2F849
:10220000A83080F3118802F1300090E8F01F8CF3C1
:10221000098802F1000004B506F0DEFCBDE80440C8
:1022200070470000CC1B002004ED00E0DC1900200A
:102230001EF0040F0CBFEFF30880EFF309808169F3
:1022400011F8021C0229FFD001B5724606F0B5FC58
:1022500001BD00BF40B2002807DB01234109034A4A
:1022600000F01F00834042F82130704700E100E099
:10227000054B420953F82220012300F01F0003FA06
:1022800000F01040704700BF00E100E038B54B1C83
:10229000072B04460D460FD96B23104A10491148ED
:1022A00006F010FC294610480723224606F00AFCD7
:1022B0006B210A4806F0FDFB40B20028ACBF00F1DC
:1022C00060400A4A4FEA4313DBB2ABBF00F56140FE
:1022D00000F00F0080F80033135438BDB4AA00009A
:1022E000EBAA0000599C000006AB000014ED00E0D2
:1022F000044B054A23F07F039360BFF34F8FBFF376
:102300006F8F70470000000000ED00E008B5FFF798
:10231000EFFF074AD2F8883023F47003C2F8883000
:1023200002F0ECFE05F03AF800F048F802F02AFF5F
:1023300000ED00E042F8203C009B0B4942F81C3CB9
:10234000019B21F0010142F8183C029B42F8081C55
:1023500042F8143C4FF0807342F8043C0023203ACA
:102360000265C0F8A83070474115000000B50C4B5D
:1023700015469860D0F8A4200A4B0E461A60D0F893
:10238000943083F30B882C4686F309880020064B93
:1023900098472046002100220023044C204700BF1C
:1023A000CC1B0020DC190020E38B0000411500004D
:1023B0001022014B1A61704700ED00E0002320213C
:1023C0000348C2180133452B82F80013F9D1704736
:1023D00000E100E008B5EFF30583064A103B02EB8D
:1023E000C30152F8330049688847BDE80840FFF749
:1023F000B7BC00BFB495000008B50F4AD2F8FC3056
:1024000043F08073C2F8FC3000220C4B5A601A680B
:1024100042F001021A601B689B010CD50849702329
:10242000084A094806F04EFB084806F04BFB7021AD
:10243000044806F03EFB08BD00ED00E0001000E09F
:1024400079AB000046AB0000599C0000B6AB000021
:102450000022034B5A601A6842F001021A6070476A
:10246000001000E0014B002158687047001000E0A8
:1024700008B501F059FD044900230868034A00210A
:10248000FDF768FE08BD00BF3400002040420F0089
:102490001FB5094C094A23460121094800F0FAF802
:1024A00000230393074B0121E41A01A8019302942E
:1024B00000F014F904B010BD000007200000002057
:1024C000449A00000002002010B50C7A0B6804F05A
:1024D0001F0223F01F031A43CB68640923F01F0374
:1024E000054943EA440343F00103C1F89800C1F8E9
:1024F0009C20C1F8A03010BD00ED00E010B5074BE6
:10250000D3F89030C3F30723013B984202D8FFF77A
:10251000DBFF10BD6FF01500FBE700BF00ED00E032
:102520002DE9F04F0F46144606464FF000084D4D7A
:1025300085B0B84580F29280D6F80490B9F1000FCA
:1025400036D0B9F11F0F40F2878019F01F0F40F00D
:102550008380D6F800A01AF01F0F7DD1504606F0F8
:1025600094FB834609EB0A00013806F08EFB834595
:1025700072D11BF1160F6FD05C456DDDC5F898B0B8
:10258000D5F89C10C5F898B0D5F8A03021F01F01FF
:1025900043F01F0AD6E900321A44994202F1FF398A
:1025A0001ED1CA4508D131465FFA8BF006F076FBA2
:1025B00008F101080C36BCE73146C5F898B0D5F8EB
:1025C0009C3022F01F0203F01F031343C5F89C3018
:1025D000E0B206F063FB10F1160F3DD0441CE7E7B4
:1025E000C5F898B0D5F8A020013B23F01F0302F0F6
:1025F0001F021343CA453146E0B2C5F8A030E8D007
:1026000006F04CFB10F1160F26D0C5F898B0D5F89F
:102610009C209DF808300AF1FF3A62F304038DF81C
:102620000830D5F8A0309DF808205B0863F3471206
:102630008DF80820D6E900321344009323F01F03DD
:102640005344A3EB0903013023F01F036946C0B2D2
:102650000393FFF753FFBEE76FF01504204605B064
:10266000BDE8F08F00ED00E00522044BC3F8942094
:10267000BFF34F8FBFF36F8F704700BF00ED00E0D7
:10268000BFF35F8F0022024BC3F89420704700BF56
:1026900000ED00E038B50C4D0C462A78FFF740FFFE
:1026A000287016300FD14FF4BB73084A0849094807
:1026B00006F008FA2146084806F004FA4FF4BB7108
:1026C000024806F0F6F938BDF01D0020FCAB000012
:1026D000C09D0000599C00002BAC00002DE9F74F75
:1026E000314E894605464FF00008B3462F4FC84586
:1026F00002DB03B0BDE8F08FD5F804A0BAF1000FFB
:102700004CD029680846019106F0BFFA01990446A9
:102710000AEB0100013806F0B8FA84424FF01402C7
:10272000234B15D002FB08F36FF015024BF8032082
:102730004FF4C3731F4A2049204806F0C3F94946A5
:102740001F4806F0BFF94FF4C3711A4806F0B1F9FB
:1027500014F1160F3460EBD01978A142E8DD02FBCA
:1027600008B0C7F89840C7F89840D7F89C4000F1E7
:102770000801007B64F304000871D7F8A0000C790D
:10278000400860F347140C71D7F89C1021F01F012A
:102790007160D7F8A01021F01F01316108F1010824
:1027A00014360C35A3E700BFE019002000ED00E06F
:1027B000F01D0020FCAB0000C09D0000599C0000F3
:1027C00057AC00002DE9F041574C584ED4F89030EA
:1027D0003568C3F307239D4286B013D940F2AD1389
:1027E000534A5449544806F06DF9D4F890202946CC
:1027F0005248C2F3072206F065F940F2AD114C4889
:1028000006F057F90020FFF73BFF4D4BC4F8C030EE
:1028100085421AD14B4C01A82570FFF76BF90025B2
:1028200006464FF04108484FAE4215D100202378AC
:102830003D49D1F89020C2F3072293426DDB00207E
:10284000FFF712FF06B0BDE8F081716801EB0011DF
:10285000FFF73AFE0130DBE7019A290102EB05138D
:10286000D3F80CC00CEA0700B0F5001F27D0B0F574
:10287000800F40D0B0F5801F4DD1586852589B68EA
:10288000CDE902022122013B20F01F010B4423F07D
:102890001F038DF810200593207802A9FFF72EFE64
:1028A000002835DA234940F2D713214A224806F09E
:1028B00009F9264806F006F940F2D7119FE7586853
:1028C0009B685258013B20F01F010B4423F01F036B
:1028D0001CF0010FCDE902028DF810800593DBD0CA
:1028E0001B497B23124A144806F0ECF8194806F0FD
:1028F000E9F87B2183E758689B685258013B20F038
:102900001F010B44CDE9020223F01F030622C0E79A
:10291000237801332370013586E7C1F89830C1F878
:10292000A000013385E700BF00ED00E0509A0000F1
:10293000FCAB0000C09D0000599C000086AC00006C
:10294000AAFF4400F01D00200000F0FF0FAD0000C2
:10295000BAAC0000E0AC000008B5024B1B68984719
:10296000002008BDF4190020034B044A1860937836
:1029700043F0020393707047F419002024000020F4
:1029800008B50649064821F00701C1F1005202F5D9
:10299000E022FEF717FD002008BD00BFAF4A00206F
:1029A000F8190020054B03EB8000D0F8003223F02B
:1029B000E04343F04053C0F8003270470025845094
:1029C000052370B5144D154E2C780134B4FBF3F388
:1029D00003EB8303E41A06F076FA114A137823B165
:1029E00056F82430C01A072814D94FF05023D3F8D2
:1029F000141141B10021C3F81411D3F814312C7013
:102A00000CB9012313702C7806F05DFA46F8240007
:102A1000012070BD0020FCE7F21D0020041A0020F8
:102A2000F11D0020012208B5114B1249C3F8002501
:102A300002230020C1F8D036FFF7B4FF1046FFF79D
:102A4000B1FFC1F80427C1F80429C1F8002B00F038
:102A5000E5F858B1084909484FF40C73084A06F0E4
:102A600031F84FF40C71064806F023F808BD00BF9A
:102A7000001000500040005072AD0000599C000052
:102A800048AD000007B50DF1070001F0DBFB154B69
:102A900098420BD01449154840F23A23144A06F0E4
:102AA00011F840F23A21124806F003F84FF4806220
:102AB000104B1149C3F8B8254FF40062C3F83C2508
:102AC0009DF8070001F0A6FB0C499DF8070001F0F6
:102AD00089FB01209DF80730984001F07DFB03B091
:102AE0005DF804FB0000AD0B72AD0000599C0000C6
:102AF00048AD000000A002502CA0025028A10250B6
:102B000048B1054B054A1B68B3FBF2F35843044B2D
:102B100043F00103184770473400002040420F0083
:102B2000D0990000F8B500214FF0FF354FF6FF7740
:102B3000184C194EDFF864C0000714F8013B5A091D
:102B40000DD0012A1DD01649164840F2CA33164A44
:102B500005F0B8FF40F2CA31134805F0AAFF25FA84
:102B600003F2D207EFD5324602EB8303D3F80022FB
:102B7000013122F0E04202430429C3F80022DCD1F3
:102B8000F8BD03F01F0327FA03F2D207DBD5624634
:102B9000EAE700BFD5AD000000258450002884502E
:102BA000AEAD0000599C00007BAD00002DE9F04166
:102BB000064601200D46FFF7B5FF4FF47F03D3F81B
:102BC0003021D3F83431072A20D1023B032B02D81D
:102BD000114AD35CD3B14FF050244FF001080027C5
:102BE0000520C4F81886C4F8147606F07CF940462F
:102BF000C4F8148606F077F9C4F81476C4F8187689
:102C000030462B46BDE8F041002118474FF05023D5
:102C10000022C3F81426F3E7D1AD000001490248B1
:102C200005F09FBF789A0000181A0020044B00207E
:102C3000D3F80425D20744BF0022C3F80425704707
:102C400000D0005010B5044C23781BB9FFF7D4FB1B
:102C50000123237010BD00BFF31D0020054BD3E8F6
:102C6000EF2F511CC3E8E01F0028F8D10AB9FFF785
:102C7000EFBB7047381A002037B540230C460A498D
:102C80000093411A491105462346084A084806F0B0
:102C900034F8011E05DA2846234603B0BDE830406B
:102CA000184703B030BD00BF501A0020698D0000E6
:102CB00014950000C9B2032908B509D909490A4881
:102CC0007F230A4A05F0FEFE7F21084805F0F1FE49
:102CD0000C22036901FB0233D3F8880000F00700DF
:102CE00008BD00BF16AE0000599C0000D9AD000021
:102CF00070B5C9B2032903690BD91A491A4840F2C1
:102D0000D1131A4A05F0DEFE40F2D111174805F042
:102D1000D0FEEFF31185202484F31288BFF36F8F68
:102D20000C2606FB0134D4F8884014F0C00408D007
:102D3000A24206D085F31188BFF36F8F4FF0FF30AA
:102D400070BD012206FB0133C3F8882085F311888A
:102D5000BFF36F8F436803EBC1035B6898470020A4
:102D6000EEE700BF16AE0000599C0000D9AD000090
:102D700070B50D4606490446411A491140220548DE
:102D8000FFF7B6FF2B4601462046BDE870401847C6
:102D9000501A0020149500002DE9F843002201216B
:102DA00006460520FFF772FA114801F0DFFA114BD1
:102DB000984219D101F0EAFA00244FF00C080127DB
:102DC000DFF834903569494605EB441005F0C9FE3B
:102DD000002807DB08FB04550134042CC5F8887073
:102DE000F0D10020BDE8F8836FF00400FAE700BFDF
:102DF000B92E00000000AD0B849A00001FB5002220
:102E00000123CDE902236B46084ACDF800D0CDF866
:102E100004D005F0A2FF002805DB4FF48042002318
:102E2000684602F035FF05B05DF804FB998D00009F
:102E300010B5EFF31184202383F31288BFF36F8F53
:102E4000074A136823F00201DB07116002D4012056
:102E500001F050FB84F31188BFF36F8F10BD00BFEA
:102E6000001B00200C22124B014602FB0033002005
:102E700030B4D3E92052C3F88000EFF3118020244E
:102E800084F31288BFF36F8FD3F8884004F0C00436
:102E900044F00204C3F8884080F31188BFF36F8FB9
:102EA0001DB12B4630BC0348184730BC704700BFEB
:102EB000501A00201495000008B5092822D8DFE830
:102EC00000F00513212121212115110F134BD3F8F7
:102ED000880010F007001FD1BDE80840FFF7C2BF0F
:102EE0000220F9E70320F7E70120F5E70C494FF44A
:102EF0003D730C4A0C4805F0E5FD4FF43D7109485F
:102F000005F0D7FD06494FF44173064A064805F01F
:102F1000D9FD4FF44171F2E708BD00BF501A0020FF
:102F2000C09D0000D9AD0000599C000010B4EFF323
:102F30001182202383F31288BFF36F8F1848016832
:102F400041F002040460C80707D482F31188BFF37C
:102F50006F8F012010BC01F045BA4FF05021D1F81D
:102F60000C04D1F80C14C907EFD5EFF3118083F3EB
:102F70001288BFF36F8F0B49D1F8883003F0C0037C
:102F800043F00203C1F8883080F31188BFF36F8FDC
:102F900082F31188BFF36F8F002010BCFFF762BF70
:102FA000001B0020501A00202DE9F04101220646A6
:102FB0004349D1E8EF3FC1E8E02F0028F9D1A3B998
:102FC000404941484B60CB608A60FEF7DBFC00283B
:102FD0000BDA3E494FF429733D4A3E4805F072FD35
:102FE0004FF429713A4805F064FD76B3731E012B46
:102FF0005BD8012E07D14FF05023D3F81C3403F0D7
:103000000303022B21D006F0A0F80546F8B9324B95
:103010001B78E3B14FF0502302220746C3F8082380
:103020004FF05024DFF8B480D4F81824D4F81834C2
:10303000D20315D503F00303022B01D0012E0FD1CB
:103040006DB387F31188BFF36F8FBDE8F081EFF3A5
:103050001187202383F31288BFF36F8F0125DFE7E9
:10306000C5B1384605F0DDFDD4F81835DBB2012BCB
:10307000DAD1D4F80421002AD6D00022C4F80421E1
:10308000D4F804210222C4F818252022C8F880218F
:10309000A360C9E70021212003F05EFEE4E74FF0C2
:1030A00050230222C3F80423CFE70D4940F2B62390
:1030B000074A084805F006FD40F2B62192E700BF36
:1030C0004C1A00203C1A0020701A00203AAE000072
:1030D000D9AD0000599C0000F61D002000E100E081
:1030E000C09D000008B5074805F0AFFF38B106489D
:1030F000FFF73AFC0448FEF705FA002008BD6FF020
:103100001200FBE7749500000D3100000A2838B565
:103110000446074D04D1AB680D2128465B689847EB
:10312000AB6803485B68E1B29847204638BD00BFF2
:103130007495000010B5036961B920493F23204A06
:10314000204805F0BFFC204805F0BCFC3F211C488E
:1031500005F0AFFC486850B91C494023184A19488B
:1031600005F0B0FC1A4805F0ADFC4021EFE75868C7
:10317000F8B1884219D19C680868A142586000D112
:103180009860002008602AB15A680A609A685960FD
:1031900002B99960002010E0814206D108682060E1
:1031A00098688142EDD19C60EBE7044600680028F6
:1031B000F2D1002AE8D16FF0150010BD8AAE0000F0
:1031C0004EAE0000599C000093AE0000A2AE00007D
:1031D000B4AE000008B503680246590914D00129AD
:1031E00006D14FF6FF7103F01F03D940C80712D470
:1031F0000A490B4840F2CA330A4A05F063FC40F220
:10320000CA31084805F055FC4FF0FF31D940C907D5
:10321000EED5054800E00548136008BDAEAD0000DE
:10322000599C00007BAD000000258450002884508C
:10323000F0B5406801F01F04057B87B044EA4514EF
:103240000569002D77D0B2F5001F00F1100506D1F9
:103250002146284605F0F3FE002007B0F0BD002708
:10326000B2F5800F01AE0197776033D1B3F1007FE3
:1032700014BF052304238DF804300023CDE9046333
:1032800003938368CB40D90739D4B2F1A07F36D1FC
:1032900068460094FFF79EFF009B803350F8233070
:1032A000DB072CD46A462146284601F057FC254B03
:1032B00098421AD0CDF808D02146284603AA01F03A
:1032C0000DFB214B984239D101222146284601F0BD
:1032D000D7FCC1E7B3F1C06F05D0B3F1007F14BFD5
:1032E00001230223C7E70323C5E76946284601F007
:1032F000BFFC154B9842DDD06FF00B00ADE76A467E
:103300002146284601F02AFC0F4B06469842D3D1AD
:1033100028469DF8001001F0A3FCB042CCD00B4928
:103320000B4840F2E1130B4A05F0CCFB40F2E111EF
:10333000084805F0BEFB6FF085008EE76FF01500C2
:103340008BE700BF0400AD0B0000AD0BF7AE000033
:10335000599C0000CBAE00002DE9F043466840F2D6
:103360000635337BD00601F01F0747EA431748BFF5
:10337000032302EA050558BFC2F3401387B0B5F531
:10338000837F14468DF8033043D00FD8062D18D014
:1033900007D8B5B1022D3ED06FF0150007B0BDE8DB
:1033A000F083B5F5807FF7D101250AE040F20222D3
:1033B000954232D0B5F5407F31D0B5F5007FEBD1E5
:1033C000022522032DD5012372688B409360336957
:1033D00073BB03A80397FFF7FDFE039B00EB83007D
:1033E00084F48033C3F30043C4F34044D0F8002294
:1033F00044EA43049DF8033022F4706244EA8304F3
:1034000022F00F0244EA05231343C0F800320020E3
:10341000C4E70725D5E70425D3E70525D1E703252C
:10342000CFE7630341BF012372688B40D360CEE7CF
:103430001036394630460DF1020201F08FFB14F4CC
:10344000403F804617D13946304605F0F6FD254B02
:103450009845DCD130469DF8021001F001FC404552
:10346000D5D021492148DE23214A05F02BFBDE215E
:103470001F4805F01EFB4FF0000901AB39463046EE
:1034800003AACDE90439CDE90199CDF80C9001F0FA
:1034900025FA144B98427FF47FAF14F4003315D013
:1034A0009DF8033084F48034C4F300448DF80E306A
:1034B00039464B46304603AA8DF80C508DF80D4026
:1034C00001F0C6FA074B9842C1D065E7CDE9043355
:1034D00039460DF10303304603AA039301F0FEF9C8
:1034E000F0E700BF0000AD0BF7AE0000599C0000F4
:1034F000CBAE00004209034670B502D0012A1ED0AF
:1035000070BD144E326951680029F9D0012503F0CD
:103510001F030C689D400029F2D08A682A4012D00F
:103520004B6873B90C4964230C4A0D4805F0CAFA7C
:103530000C4805F0C7FA6421084805F0BAFA0A4EAB
:10354000E0E7304698471CB1236821461C46E2E775
:103550002346FAE7549500000BAF00004EAE000082
:10356000599C0000B4AE00003495000038B54568A1
:103570002B69B3B11035284601F068FB044680B9C9
:103580000146284601F016FB084B98420BD1224613
:103590002846074901F0DCFA224605210D20FEF7F6
:1035A00075FE002038BD6FF00400FBE70000AD0B96
:1035B000F534000010B5154C204605F046FD08B363
:1035C0006368A1681B6822699B020CD513682046BA
:1035D00023F4001313600B684FF4C02215219847A1
:1035E00000EAE07010BD0A494FF47F73094A0A48A7
:1035F00005F068FA094805F065FA4FF47F7105484F
:1036000005F057FA6FF01200ECE700BF5495000088
:10361000FD9D0000EF9B0000599C00003B9E0000B8
:1036200008B503680246590914D0012906D14FF69E
:10363000FF7103F01F03D940C80712D40A490B4891
:1036400040F2CA330A4A05F03DFA40F2CA3108484E
:1036500005F02FFA4FF0FF31D940C907EED50548E4
:1036600000E00548136008BDAEAD0000599C0000A5
:103670007BAD000000258450002884502DE9F04FD8
:103680001546824640F2FF19DFF878B185B000EBAD
:103690008108D04503D1002005B0BDE8F08FDAF8ED
:1036A0000030C3F3C3210829C3F3080400F2A48047
:1036B000554A1B0E4C4508BF4FF0FF34575C192B81
:1036C00000F29D80DFE803F00D141A1D20261D9BDB
:1036D0009B9B9B356265686B6E7174779B9B7A8F41
:1036E0009295C5F80C45621C72D10AF1040AD0E724
:1036F000C5F81445631CF8D0002672E0C5F80845EB
:10370000F1E7C5F81045F5E7661CC5F80845ECD0AB
:10371000002604E0C5F80C45601CE6D0012603A88D
:103720000394FFF77DFF0121039B01FA03F3C360BC
:1037300008E0C5F80845002FDCD1611CD5D0002673
:1037400006273146DAF80030039403F400400028DD
:1037500018BF002103A818BF012601930091FFF7AD
:103760005FFF039C019B00EB8400D0F80042C3F391
:10377000412C00993B0243EA8C030B4304EA0B04FF
:10378000234343EA4603C0F80032AEE7C5F80C45D0
:10379000D1E7C5F86445BFE7C5F86445AAE7C5F8B1
:1037A0006845B9E7C5F86845A4E7C5F86C45A1E7E1
:1037B000C5F87045B0E7C5F86045ADE7C5F86045A8
:1037C000621CDAF8003090D0C3F30043002BA5D080
:1037D000012603A80394FFF723FF039B06FA03F3D4
:1037E00083603146AEE7C5F86445E9E7C5F868454A
:1037F000E6E7C5F86C45E3E76FF015004CE76FF0BE
:10380000850049E7F0F0FCFF2FAF000073B5436877
:103810000D46986A00282DD0012493F82C309C4046
:1038200043681B681C420ED1144940F23463144AA9
:10383000144805F047F9144805F044F940F23461A2
:103840000F4805F036F90669836801A95B68984757
:10385000002807D004DB003818BF012028700020A2
:1038600002B070BD3268019B5340234214BF012057
:103870000020F0E76FF08500F2E700BFFD9D00003B
:10388000EF9B0000599C00003B9E000010B5436870
:103890000A46986A40B3012926D893F82C100123D0
:1038A00003FA01F1436804691B6819420ED11049FB
:1038B00040F28D630F4A104805F004F90F4805F0F7
:1038C00001F940F28D610B4805F0F3F823681942C5
:1038D00018BF82F0010222B18368DB68BDE81040A6
:1038E000184783681B69F9E76FF0850010BD00BFBA
:1038F000FD9D0000EF9B0000599C00003B9E0000D6
:10390000F8B54468206800284FD005F09EFB0028D9
:103910004CD020682179E38803F03002302A066910
:10392000D0E901470ED1234940F2E233224A23482D
:1039300005F0C8F8224805F0C5F840F2E2311E480B
:1039400005F0B7F803F00602042A09D11D4940F238
:10395000E933194A194805F0B5F840F2E931EEE7C4
:1039600001252468DA0705FA01F554BF43F4B013C2
:1039700083F4D013254223F480120CD112494FF462
:103980007F730D4A0D4805F09DF8104805F09AF830
:103990004FF47F71D3E73468DB074CBF2C43AC4353
:1039A00034603B68984700EAE070F8BD6FF01200A1
:1039B000FBE700BF209C0000EF9B0000599C00002B
:1039C000769C0000499D0000FD9D00003B9E00008C
:1039D0002DE9F04104460D46476805F0B6FB4FF06F
:1039E000200888B9264B1B7873B16426606805F0FF
:1039F0002AFAF0B9012005F076FA013EF6D100214D
:103A0000212003F0A9F9F0E7EFF31186314688F39E
:103A10001288BFF36F8F606805F015FAA8B986F3B6
:103A20001188BFF36F8FEFE786F31188BFF36F8FB5
:103A3000E5E7EFF31186314688F31288BFF36F8F05
:103A4000606805F000FA0028EED0FB6900201D70C8
:103A50006368FA691B68C3F844250122C3F8482546
:103A6000C3F82001D3F82041C3F85801D3F8580116
:103A70009A6081F31188BFF36F8FBDE8F08100BFBA
:103A8000F61D0020F8B50546002201210820FEF7AA
:103A9000FDFB0820FEF7DEFB6C680121E06805F005
:103AA00003FA6B6819682369C1F82435A27D637D28
:103AB000207D1343228B02431343C1F86C356E689B
:103AC000D6E9004313F0010342D02F6907F1080043
:103AD00000F0B8FB2D4B984254D1387A04F10C0217
:103AE00004F5907105F001FA387A012707FA00F021
:103AF00000F072FB0823C4F80035F369C4F84435BC
:103B00000023C4F84835A760D4F85831002BFBD007
:103B10000026C4F800656B683146D86805F0C4F922
:103B20006D683146E8682C6805F0BEF90823C4F8D2
:103B300000352A7A52B92B6AC4F834350123C4F807
:103B40003835C4F81021D4F8102123600020F8BDC6
:103B50000822C4F80025F269C4F84425C4F84835A1
:103B60000123A360D4F82031002BFBD00023C4F83C
:103B70002031D4F820310123E3604FF48073C4F87E
:103B80000433C1E76FF00400E1E700BF0000AD0BB4
:103B900070B40E4922F07F46D1E90034D01AC31820
:103BA00044F10004C1E90034A6F50013B3F5400F59
:103BB00009D2074B1B681A0A1B069C19054B42F1D8
:103BC0000005C3E9004570BC03F074BD3806002051
:103BD000301B0020400600200D4B1868010A00062B
:103BE000BFF35F8F0B4BD3F80435181841F1000178
:103BF000B3F5801F0AD2084BD3E90023904271EB42
:103C0000030303D210F1807041F10001704700BF3F
:103C1000301B002000500150400600202DE9F743E2
:103C20002E4BD3F8042390070BD5D3F8042142B1CF
:103C30000022C3F804212A4AD3F80431136801335F
:103C40001360264AD2F80433D90326D5254BD3E88E
:103C5000EF1F21F00100C3E8E40F002CF7D1CB07E0
:103C600002D4D2F84031C3B100251C4CC4F84051F5
:103C7000D4F84031FFF7B0FFEFF31182202383F334
:103C80001288BFF36F8F184BD3E90267B042B94176
:103C900006D282F31188BFF36F8F03B0BDE8F083C3
:103CA0004FF0FF38D3E900104FF0FF391D60C3E932
:103CB00002894FF48033C4F84833C4F84051D4F833
:103CC000403182F31188BFF36F8F0029E5D0009057
:103CD00032463B4628468847DFE700BF0050015088
:103CE000301B0020281B0020280600202DE9F84F5B
:103CF00004460D46434FD7E8EF8F28F00103C7E88D
:103D0000E23F002AF7D14FF480393F4EC6F80893BE
:103D1000BFF35F8FBFF36F8FFFF75EFFA04271EBC2
:103D2000050308F0010840D2384B201A65EB010169
:103D3000984271F1000148D2354BD3E902239D42EC
:103D400008BF94423AD04FF0000C24F07F408346E5
:103D500003216FF0020EC6F84893C6F840C1D6F8AA
:103D60004031DFF8B0A02BF07F43C6F84035C6F8ED
:103D70004493D6F80425AEEB02035B4423F07F4363
:103D800053451BD9D6F840315BB1D6F80425131A38
:103D900023F07F43B3F5000F10D9C6F840C1D6F821
:103DA000403101EB020B0131DDE71B4BD3E8EF1F84
:103DB00041F00101C3E8E21F002AF7D1144B174A72
:103DC000C3E902451A6000225A60B8F1000F16D00C
:103DD000D7E8EF3F43F00103C7E8E23F002AF7D1FD
:103DE0004FF48032084BC3F804230B4BD3E8AF3FAA
:103DF000DB0742BF4FF40012094BC3F80021BDE8B6
:103E0000F88F00BF2C1B00200050015001008000E3
:103E100028060020FDFF7F00281B0020913B0000AA
:103E200000E100E070B54FF0FF3000254FF0FF31AA
:103E3000164C174B0226C4F80833C4F84833154B08
:103E4000C4F80855C3E902014FF480334FF400125F
:103E5000C4F80433104B0121C4F804631520C3F8DF
:103E600080212A46FEF712FA1520FEF7F3F9012306
:103E70000A4AA3600021236009481360FFF736FF58
:103E80003046FFF791F8284670BD00BF0050015042
:103E900003000F002806002000E100E02C1B00209A
:103EA000FFFF7F00431C10B50F4C05D08442A8BF14
:103EB0000446012CB8BF0124FFF78EFE0B4AD2E95D
:103EC0000031C01AB0F5000F074A0AD220449042D0
:103ED00028BF1046BDE81040C01841F10001FFF7AF
:103EE00005BF1046F6E700BFFFFF7F003806002041
:103EF00008B5FFF771FE024B1B68C01A08BD00BF72
:103F0000380600204FF47F03D3F83021D3F8343142
:103F1000072A05D1023B032B02D8024AD05C704726
:103F2000002070474FAF00004FF05023D3F85825C2
:103F3000034B02F00302D340024A1360704700BFF4
:103F40000020A1073400002008B5FFF7DBFF58B1BF
:103F5000784BD3F8202A3AB90D21C3F8201A012151
:103F6000C3F81C19C3F81C290022D30003F57F03F2
:103F7000D3F80013013107D0D3F800130132D3F87E
:103F80000433202A0B60F0D1FFF7BCFF002840F07B
:103F9000B980FFF7B7FF40B1674B684AC3F83025D7
:103FA0004FF050230122C3F858254FF47F03D3F874
:103FB0003021D3F83431072A09D1023B032B06D82C
:103FC0005F4AD35C1BB100225E4BC3F84C25FFF760
:103FD00099FF50B14FF05023D3F80024D00742BFCF
:103FE0000022C3F81421C3F818214FF47F03D3F83B
:103FF0003021D3F83431072A09D14FF05023D3F8B8
:104000000024D10744BF6FF00102C3F80024FFF77A
:1040100079FF18B16522474BC3F80C274FF47F0393
:10402000D3F83021D3F83431072A16D1454BD3F8D1
:104030002034002B11DA4FF050230322C3F8182547
:1040400001229A60D3F80421002AFBD00022C3F891
:1040500004210122DA60C3F818254FF47F03D3F856
:104060003021D3F83431072A23D1023B032B02D865
:10407000354AD35CEBB17E222E4B2F49C3F80C2777
:10408000C3F83C297F23314AC2F818310023C1F814
:10409000043EC1F8083E01F54821C1F81031C2F8CC
:1040A0002431C2F82C3102F5FF1202F58052C2F819
:1040B000A032274B9A6AD2072CD501211E4AC2F89A
:1040C0000415D2F800140029FBD09A6A22F00102EC
:1040D0009A62194BD3F80024002AFBD00022C3F8BF
:1040E0000425D3F80024002AFBD0BFF34F8F1949D1
:1040F000194BCA6802F4E0621343CB60BFF34F8FE1
:1041000000BFFDE729220B4BC3F80C270322C3F89D
:104110003C273EE70F49D1F88C2042F44062C1F8B9
:104120008C2019680D4AC2F84415DB69C2F84C3579
:1041300008BD00BF00400050009003504400EFBE97
:104140004BAF00000020035047AF0000002000509C
:104150000080FF0000ED00E00400FA050060005060
:1041600030B50468ACB1B4FA84F30122C3F11F0383
:10417000DBB29A4024EA0202D0E8EF5FA54204D104
:10418000C0E8EC2FBCF1000FF6D1EAD102480B7069
:1041900030BD0248FCE700BF0000AD0B0200AD0BD4
:1041A00010B50368CB40DB0710D401238B400268B5
:1041B00043EA0201D0E8EF4F944204D1C0E8EC1F7B
:1041C000BCF1000FF6D1F2D1014810BD0148FCE767
:1041D0000000AD0B0400AD0B014BC3F804057047A4
:1041E0000070015008B549B9074908484823084AF2
:1041F00004F068FC4821064804F05BFC40F00040F5
:10420000C1F8800008BD00BFF0AF0000599C00005D
:10421000B3AF000008B549B9074908484E23084A1A
:1042200004F050FC4E21064804F043FC40F00040EE
:10423000C1F8800008BD00BFF4AF0000599C000029
:10424000B3AF00000146014800F0C4B938000020B7
:104250000328F7B5064635D84FF050213D4B3E4A6E
:1042600033F81000925DC1F808030A4400250121CB
:104270003A4B116033F816308E4203F150231D6023
:104280001B688DF8071001D10DF1070542F210747B
:104290004FF05027022E4BD0032E1FD0012E30D0CE
:1042A000D7F8183403F48033002D4AD0D7F81824F7
:1042B00002F003022A701BB19DF8070001282BD0E1
:1042C00003B0F0BD264927484FF48673264A04F010
:1042D000F9FB4FF48671244804F0EBFBD7F8543413
:1042E000DB03EDD5002DE7D1012004F0FCFD013CFE
:1042F000F4D1E5E7002BE3D0012004F0F4FD013C0C
:10430000DED0D7F80C3403F48033002DF2D0D7F888
:104310000C2402F00102CDE704F0E5FD013CB9D127
:10432000CEE7002BCCD0012004F0DDFD013CC7D04E
:10433000D7F85C3403F48033002DF2D0D7F85C2436
:10434000E7E7002BBCD0012004F0CDFD013CA3D158
:10435000B6E700BFE49B000053B00000DC9B000008
:10436000C09D0000599C0000F8AF0000044B1A7972
:1043700022B9012218601A7102487047024870473A
:10438000341B00200000AD0B0C00AD0B08B5114B29
:104390001A795AB9104911484FF4B673104A04F00B
:1043A00091FB4FF4B6710E4804F083FB1B6833B1E8
:1043B0000520FDF75DFF10B90520FDF74BFF4FF01D
:1043C00050230122C3F81825C3F81425C3F880250B
:1043D00008BD00BF341B002035B00000599C000010
:1043E000F8AF000038B53E4C23795BB93D4940F247
:1043F000C1133D4A3D4804F065FB40F2C1113A4803
:1044000004F057FB03284FD8DFE800F018585D028E
:1044100018224FF490734FF48071002003F1502361
:1044200018601D68012502F1502215602268002ADB
:104430004FD04FF05023C3F804132AE04FF050231D
:10444000D3F81814D3F81824C90312D502F00303C3
:10445000022B05D0012B02D00020FFF7F9FE01232B
:104460004FF050220221C2F8183508224FF482730F
:10447000D3E7D3F81424D207F1D5D3F81C2402F0E3
:104480000302013A012AE7D822681AB10222C3F8CE
:10449000042338BDD3F80421002AFBD00022C3F83E
:1044A0000421D3F80431F4E7114940F21D230E4AE8
:1044B0000E4804F007FB40F21D21A0E700224FF454
:1044C00080730121A9E720224FF492734FF4007109
:1044D000A3E71A68002AFCD018601B68D9E700BF60
:1044E000341B002035B00000F8AF0000599C0000DC
:1044F000C09D000008B5094B1B795BB90849094804
:1045000040F23723084A04F0DDFA40F2372106482A
:1045100004F0CFFABDE80840FFF79ABE341B002034
:1045200035B00000599C0000F8AF0000F8B54FF01E
:10453000502301250026D3F80443224F04B9F8BDC7
:10454000B4FA84F0C0F11F00820002F5807292B2CA
:1045500002F1502205FA00F311689BB224EA030429
:104560000029EBD0166012684FF05022022BC2F8DF
:10457000083314D00DD8012B1FD0134913484FF422
:104580006F73134A04F09EFA4FF46F71104804F0F1
:1045900090FAB3F5807F10D0B3F5007FECE7D2F846
:1045A0001814D2F8181401F00301012905D1C2F83A
:1045B0001835C2F804339160C0E73B68C0B2984731
:1045C000BCE700BF341B0020C09D0000599C0000C8
:1045D000F8AF00000079024B03EB0010FFF7C0BDFD
:1045E00040000020034A4309D35C00F01F00184438
:1045F000C0B2704780B1000008B50268014610469D
:1046000004F07EFC58B9104940F2CA330F4A1048F2
:1046100004F058FA40F2CA310C4804F04AFA02F0A9
:104620001F0352090B600BD0012A0BD0094940F23D
:10463000D333064A064804F045FA40F2D331EBE79B
:10464000054808BD0548FCE7AEAD00007BAD0000A5
:10465000599C0000C09D0000002584500028845013
:10466000072808B50BD90849084840F2D133084A51
:1046700004F028FA40F2D131054804F01AFA80001B
:1046800000F5807008BD00BF8CB00000599C000090
:1046900057B0000070B50546FFF7A4FF0C4C08307A
:1046A00034F810300E46DA0508D5C3F3432304EB83
:1046B000C302284654F8333052689847A3682BB198
:1046C00031462846E268BDE87040184770BD00BF1B
:1046D0003C1B002008B5FFF785FF034B083033F87B
:1046E0001000400B08BD00BF3C1B002008B5FFF7C1
:1046F00079FF034B083033F81000C0F3400008BDC9
:104700003C1B002008B5FFF76DFF044B083033F861
:10471000100010F01C0018BF012008BD3C1B002039
:1047200008B5FFF75FFF034B083033F81000C0F304
:10473000401008BD3C1B0020034611F0010010B5DD
:10474000CCB20BD1A207C4F340000DD5074A106AC2
:1047500058601062003818BF012005E004490A6A59
:104760001A600A62002AEDD010BD00BF00288450F4
:104770000025845010B5FFF735FF184A083032F88D
:104780001030D9051DD5C3F3432123F4F85322F883
:104790001030002002F10E0434F8023F13F4807F41
:1047A00003D0C3F3432399420BD001303028F3D117
:1047B00000230B4842F83130FFF7F2FC094B9842D6
:1047C00000D110BD0849094840F2EB13084A04F033
:1047D00079F940F2EB11064804F06BF93C1B00201C
:1047E000B41B00200000AD0BF7AE0000599C000088
:1047F00096B000002DE9F8430024074625464FF007
:104800000108A146CEB2B4420DD1124BD3F87C219F
:1048100032B10022C3F87C21D3F87C3145F0004549
:104820002846BDE8F8832046FFF71AFFA0F58072FE
:10483000920808FA02F2174209D000F1A04303F5EA
:104840005043196819B1C3F800901B68154301342F
:10485000E4B2D8E700D00050F7B506460846FFF7A7
:10486000C1FE1A4F00F1080537F815300C46DB077A
:104870002AD5304604F0BDFB2046FFF751FF58B162
:104880002046FFF727FF0022316800B201EB8003CA
:10489000C3F81025C3F810252046FFF76BFF00234F
:1048A00001A827F815300194FFF7A6FE019B00EB45
:1048B0008300D0F80022064B134043F00203C0F8F7
:1048C0000032044803B0F0BD0348FBE73C1B002066
:1048D000F0F0FCFF0000AD0B0400AD0B2DE9F04340
:1048E0001646804685B00846FFF77CFE37680D46C1
:1048F0000446E7B1084604F071FB08BB3B46CDE92E
:1049000000008DF80E008DF80F000DF10F020DF173
:104910000E01284604F006FB494A04F1080132F86A
:10492000113023F0020343F0010322F811307368C1
:104930007BB328461F785968FFF7D8FE10B1E9B15C
:10494000404829E03E4A04F1080032F8103023F0D4
:104950002003DB04DB0C22F8103079B1032FEFD8F1
:104960007168D1F804E0D8F800109EF800C001EB9F
:104970008C01A7B9C1F81075C1F81075304A04F15F
:10498000080132F8113023F01C0343EA870322F8B0
:104990001130B3685BBB2C4805B0BDE8F083D1F89B
:1049A00010E543EA4C332EF0030EC1F810E5D8F8B9
:1049B000001043F0200301EB8C0EDEF8101522F8F6
:1049C000103021F44F3121F44071CEF81015290236
:1049D000DEF8108501F47C5141EA074141EA080103
:1049E000CEF8101502EB4C01A1F87C50C6E7284622
:1049F000D3E90067FFF7BEFE002ECCD0104DD5E9FD
:104A00000023964203D19F4201D1002209E00F48C2
:104A10000DF10F01FFF7A4FB0B4B9842BCD19DF8A1
:104A20000F2005EBC20308345F6035F8143045F8F9
:104A3000326043EA422343F4807325F81430AAE736
:104A40003C1B00200400AD0B0000AD0BB41B00208C
:104A50002DE9FF410C468046204611461D46FFF7D2
:104A6000C1FD064621B32046FFF740FE18B9204697
:104A7000FFF756FE10BB2046FFF744FE10B14B78FF
:104A8000012B1BD001238DF80F3000234A1CCDE9E8
:104A9000001320468B1C0DF10F0104F043FA294A44
:104AA00006F1080132F8113043F0030322F8113007
:104AB000002D44D02046FFF719FE18B9224804B053
:104AC000BDE8F081002295F800C0D8F800301D4FF5
:104AD00003EB8C03C3F81025C3F8102506F1080278
:104AE00037F812104FEA8C0E21F02001C904C90CCE
:104AF00027F812106E7816B3D8F80000AD7870441D
:104B0000D0F81035360423F4991323F4F853C0F881
:104B10001035230203F47C5306F440362D05D0F8FB
:104B200010E5334305F480152B4341EA4C3143EA49
:104B30000E0341F02001C0F8103527F81210034889
:104B4000BDE700BF3C1B00200400AD0B0000AD0B17
:104B5000014BC3E9021270473C1B002010B51446FC
:104B60005AB90E490E4840F24D330E4A03F0AAFFDF
:104B700040F24D310B4803F09CFF0846FFF7D0FD93
:104B800050B10846FFF72EFD074B083033F81030C0
:104B900006485B0B237010BD0548FCE734B10000EC
:104BA000599C000096B000003C1B00200000AD0B9B
:104BB0000400AD0BF8B51E4B026805469A420BD0B7
:104BC0001C491D484FF458731C4A03F07BFF4FF4F7
:104BD00058711A4803F06DFF194E96F88C402CBBA3
:104BE00027466022214606F1100004F03EFB2D68A6
:104BF000E0B2FFF735FDA0F580739B081F2B08BFBF
:104C00002F5004F1010408BF2B58082CF0D10023C9
:104C100045F30730C5F87C31D5F87C31FDF71AFB38
:104C20000123084886F88C30B367F8BD0648FCE7D6
:104C300000D000503EB10000599C000096B000002A
:104C40003C1B00200000AD0B0C00AD0B034B93F898
:104C50008C00003818BF0120704700BF3C1B0020AB
:104C60000079024B03EB8000FFF79ABA5000002056
:104C70000079024B03EB8000FFF772BA500000206E
:104C80002DE9F341054608460C461646FFF73AFD66
:104C900058B9334940F25343324A334803F012FFC4
:104CA00040F253412F4803F004FF0846FFF738FD58
:104CB0002F6800B30846FFF719FD8046D8B90846AB
:104CC000FFF708FD0446FFF7CBFC47F800803B5890
:104CD0002B6822B203EB8203D3F8102542F00102C5
:104CE000C3F8102526B101232A68A340C2F8043373
:104CF00002B0BDE8F081D7F80433002BA4BF4FF019
:104D00000043C7F804334EB9184940F26D43154AC1
:104D1000154803F0D7FE40F26D41C3E72046FFF788
:104D200061FC134B083033F81030C3F38203042BBB
:104D300011D0052B11D001A80194FFF75DFC019B58
:104D40000169D94001F001010231204602B0BDE8FD
:104D5000F04104F034B90321F7E70221F5E700BF81
:104D600013B1000096B00000599C000075B100001E
:104D70003C1B00202DE9F04F634B0821D3F80403BE
:104D800087B0C0B240F00040FFF734FD051E2BDABB
:104D90000023032104A8CDE90433FFF7CDFC4FF035
:104DA00000094FF0010BDFF864A10DF110081AF8AB
:104DB000013B5749DA088A5C03F0070322FA03F340
:104DC000DA071CD408F10408B9F1000F14D000214F
:104DD0004FF00040FFF70EFD032104A8FFF7ACFCE5
:104DE0000028DCD125F000450124474E494F002D15
:104DF00075D107B0BDE8F08F4FF00109D7E7464BFA
:104E00004B440093D8F800100029DBD091FAA1F1AF
:104E1000B1FA81F1009B1C7841EA44142046FFF767
:104E2000E1FB3C4B083033F81070C80818F800203C
:104E300001F007010BFA01F122EA0102BB0808F8B0
:104E4000002003A801930394FFF7D6FB039A019B6C
:104E5000803250F82220C7F382065B073746C2F340
:104E6000014221D539462046D6B2FFF713FC03A8EC
:104E70000394FFF7C1FB039B803350F82330C3F347
:104E800001439E4207D10021204604F098F83146A4
:104E9000204604F094F803A80394FFF7ADFB039BAE
:104EA0000BFA03F30362ADE7022A0CD1032120467B
:104EB00004F085F806F00503012BECD139462046B5
:104EC000FFF7E8FBE7E702212046019204F077F8BC
:104ED000032EF3D0019A032ADDD1022EEDE795FAD5
:104EE000A5F3B3FA83F304FA03F225EA020503F506
:104EF000A27256F8221007EB4303B3F87C00C1F30B
:104F00000141FFF7C7FB72E700D0005090B10000ED
:104F1000349B00003C1B002090B1000008B50A4AF9
:104F20000A4B93420ED90A4919230A4A0A4803F048
:104F3000C9FD0A4803F0C6FD1921064803F0B9FD72
:104F40002033EEE7FCD308BDB495000014950000B3
:104F5000B5B1000092B10000599C0000CDB1000035
:104F600070B50446EFF31186202383F31288BFF354
:104F70006F8F0E4B9D6804F07BF8042C0CD10C490C
:104F800087230C4A0C4803F09DFD0C4803F09AFD62
:104F90008721084803F08DFD86F31188BFF36F8FDA
:104FA0002846BDE87040FDF7F9B800BFCC1B0020D3
:104FB0000EB20000ECB10000599C00002BB20000C2
:104FC00038B50A4B53F82040013053F82050A54221
:104FD00000D838BD606830B1037FDB0701D404F02E
:104FE0004AF80834F3E723689847FAE7389B00004B
:104FF000012270B5384B032086B01A70FFF7E0FF2E
:10500000FDF740FDFCF77CFD0420FFF7D9FF334C92
:10501000334DAC42264628D932494223324A3348DE
:1050200003F050FD324803F04DFD42212E4803F0BD
:1050300040FD54F80C3C059354F8103C049354F88C
:10504000143C039354F8183C029354F81C3C01930D
:1050500054F8203C009354E90A2354E90C0100F071
:1050600089FF54F8303C5E65D3E7AE4204F130046A
:10507000DFD301F051FC194C1E4EAC421FD9194927
:105080006623194A194803F01DFD194803F01AFD5B
:105090006621CBE7D4E90A23B3F1FF3F08BFB2F1A1
:1050A000FF3F05D052EA0301206803D101F098FECA
:1050B0003034E2E73146183002F0BAF9F8E7E9D3C4
:1050C00001F098FCFCF7AAF80B4A137B23F00103CC
:1050D000137306B070BD00BFF61D0020E0970000FE
:1050E0000099000081B2000060B20000599C0000ED
:1050F000CDB10000B7910000F806002008B50348C4
:10510000034A0021121A03F0CDFF08BD000200205F
:10511000F81D0020B02370B5144E86B003FB006666
:10512000134B012205930F23CDE903320023CDE970
:10513000013314234FF4A0720E4D0F4903FB0055A9
:10514000044602FB00110D4B3046009500F012FFA3
:10515000737B2C7423F004037373094B013403EB4A
:10516000C423EE606B6006B070BD00BF480600202F
:10517000AEB20000CC1B0020683D00203955000075
:1051800068350020BFB50020FFF71AFF2A4B03F552
:10519000006282F3088883F30A880024E023274D05
:1051A000274F85F82230EC772C766C76AC7685F834
:1051B00020406B6A43F4E0236B6285F82340FCF7E0
:1051C00067FFFDF7F5F84FF0FF33AB62EB62FDF7D9
:1051D000F9FAFDF75DF91B4800F08AFFFFF79EFE24
:1051E000FDF720FC0120FFF7EBFE0220164DFFF734
:1051F000E7FE01F08FFC154B15495D61154B4FF42F
:105200008062059301232846CDE90343CDE901449B
:105210003B46009400F0AEFE06466A7B284622F02C
:1052200004026A7301F0E0F82046FFF773FF3A4684
:1052300031462846FDF79AF86835002000ED00E079
:10524000F14F0000A8070020F8060020CC1B00202A
:10525000A83E0020B3B20000002038B50C4C0D4D24
:10526000AC4213D90C4994230C4A0D4803F02AFC94
:105270000C4803F027FC9421084803F01AFC204650
:1052800003F014FF002802DB2034E9E7F7D338BD30
:10529000D0000020D0000020DDB20000B8B2000035
:1052A000599C0000CDB100002DE9F74305460F469B
:1052B00091461C4600F10806EFF31188202383F382
:1052C0001288BFF36F8F304601F0E8FF60B9882382
:1052D000314A3249324803F0F5FB3146314803F098
:1052E000F1FB88212C4826E0304601F0FBFF2B69BA
:1052F0001BB33B601C68EB692C610133EB6114B993
:105300006A6993421FD0EB68E41A09D4D5E90523F2
:105310005A43A24204D9B4FBF3F203FB124494B102
:105320002149E923214A1E4803F0CCFB204803F021
:10533000C9FBE9211D4803F0BCFB59EA040214D162
:105340006FF00B043B60304601F0B6FFF0B940F25D
:105350003113114A1749124803F0B4FB314616487D
:1053600003F0B0FB40F23111BCE7CDE900942A46CE
:105370004146304601F01AF9044618B90F4B9B68B4
:105380001B693B60204603B0BDE8F08388F31188B9
:10539000BFF36F8FF6E700BFCFA7000028A800007B
:1053A000599C00003DA80000FAB20000B8B200000D
:1053B00076B30000FCA7000013A80000CC1B00205F
:1053C0002DE9F843C3680546CB1A0E4623D4D0E92D
:1053D0000512514399421ED9B3FBF2F102FB11337E
:1053E000CBB900F10807EFF31189202484F3128868
:1053F000BFF36F8F384601F051FFD8B98823414A77
:105400004149424803F05EFB3946414803F05AFBEC
:1054100088213C480CE03F4940F211133E4A3B488A
:1054200003F050FB3D4803F04DFB40F211113A48A8
:1054300003F03FFB384601F055FFD5F81080B8F176
:10544000000F40D1EFF3118384F31288BFF36F8F05
:1054500083F31188BFF36F8F5BB93149B023314AB1
:105460002A4803F02FFB304803F02CFBB0212D48D5
:10547000DEE72C68A54226D02CB3A3683BB92B49A4
:105480009923284A214803F01DFB9921EFE7D4E92D
:10549000003213605A60637BC4E9008823F0020382
:1054A0006373C4F8088004F1180002F0A5F82046E0
:1054B000C4F8AC80266100F097FF49463846BDE845
:1054C000F84301F0CFB92B6938463360EB692E61A0
:1054D000013BEB6101F0F0FE68B940F23113094A7B
:1054E00013490A4803F0EEFA3946124803F0EAFA83
:1054F00040F231118DE789F31188BFF36F8FBDE85A
:10550000F88300BFCFA7000028A80000599C000026
:105510003DA80000C09D0000B8B2000091B300009B
:10552000DEB30000B3B30000F6B30000F9B300002F
:10553000FCA7000013A8000008B50D4B9B6893F969
:105540000E30002B09DB2024EFF3118384F3128843
:10555000BFF36F8F03F04CFBF6E7064906481C23A8
:10556000064A03F0AFFA1C21044803F0A2FA00BF78
:10557000CC1B002031B40000599C000010B4000086
:105580002DE9F341044617461E46EFF3058565B144
:1055900058496F23584A594803F094FA584803F081
:1055A00091FA6F21544803F084FAEFF31188202315
:1055B00083F31288BFF36F8F524801F06FFE60B91A
:1055C0008823514A51494D4803F07CFA4D495048CF
:1055D00003F078FA88214C48E5E74A4801F082FE5A
:1055E000E3684C4A9BB1A0689168884229D057EA89
:1055F00006032ED1434801F05FFEA0B188F3118865
:10560000BFF36F8F6FF00F0002B0BDE8F0819168BB
:1056100091F90E100133E36093683A482161A36069
:1056200001F04AFE78B940F23113374A3A4933481B
:1056300003F048FA3349394803F044FA40F2311193
:10564000C9E72169E6E788F31188BFF36F8F00206F
:10565000DAE791F90E1090F90E306FF07E02994260
:10566000A8BF19469142B8BF11468B4202DD03F034
:1056700046FD054622464146CDE90076214800F028
:1056800095FF0028E3D0EFF31186202383F31288DF
:10569000BFF36F8F1B4801F001FE002890D019481E
:1056A00001F020FEA068C0B1236821699C420AD0A5
:1056B0004BB193F90E309942A8BF19466FF07E03A3
:1056C0009942B8BF194603F01AFD30B131460D4872
:1056D00001F0C8F86FF00A0096E7002DF6D10948EE
:1056E00001F0EAFD00289ED086F31188BFF36F8F8A
:1056F000F0E700BF7BB4000059B40000599C0000E3
:105700008DB40000F01B0020CFA7000028A80000E7
:105710003DA80000CC1B0020FCA7000013A800003F
:10572000F8B50546EFF3058363B15549D723554ACC
:10573000554803F0C7F9554803F0C4F9D72151483B
:1057400003F0B7F98368002B00F09380504A926809
:10575000934240F09180C3683BB94E49EF23494AD8
:10576000494803F0AFF9EF21E9E7012B03D0013BF2
:10577000C3600020F8BDEFF31187202484F3128862
:10578000BFF36F8F444801F089FD60B98823434A15
:1057900043493D4803F096F93F49424803F092F9E6
:1057A00088213E48CCE73C4801F09CFD2969A86867
:1057B00003F0A5FCEFF3118384F31288BFF36F8F1E
:1057C00083F31188BFF36F8F5BB93749B023374A32
:1057D0002D4803F077F9364803F074F9B0213348C7
:1057E000AEE72C68A54215D100232B48C5E902334A
:1057F00001F062FD002837D140F23113274A2D49CC
:10580000214803F05FF924492B4803F05BF940F28B
:105810003111C6E7002CE7D0A3683BB9274999238B
:10582000224A194803F04EF99921D8E70026D4E915
:10583000003213605A60637BC4E9006623F0020300
:105840006373A66004F1180001F0D6FEAC6094F911
:105850000E3020462B61C4F8AC6000F0C5FD39461F
:105860000D4800F0FFFF84E787F31188BFF36F8FC7
:105870007FE76FF015007DE74FF0FF307AE700BF5C
:105880007BB4000059B40000599C00008DB40000A6
:10589000CC1B0020B2B40000F01B0020CFA70000FA
:1058A00028A800003DA80000DEB30000B3B300004C
:1058B000F6B30000FCA7000013A80000F9B3000035
:1058C00008B583684BB90B490B4899230B4A03F081
:1058D000F9F89921094803F0ECF8D0E90032136097
:1058E0005A600023427BC0E9003322F00202427377
:1058F000836008BDF9B30000599C0000B3B30000F9
:105900002DE9F04704460D4691469A469DF82060E1
:1059100000F10807EFF31188202383F31288BFF307
:105920006F8F384601F0BAFC60B988234A4A4B4968
:105930004B4803F0C7F839464A4803F0C3F88821BA
:1059400045481BE0384601F0CDFC06B16568EFF331
:105950001183202282F31288BFF36F8F83F31188A3
:10596000BFF36F8F63B94049B023404A3C4803F00E
:10597000A9F83F4803F0A6F8B0213C4803F099F895
:10598000234653F80C6F9E4216D0AEB10024304629
:10599000FFF796FF06F1180001F02EFE3046C6F81C
:1059A000AC40C6F8109000F01FFD4146384600F0AC
:1059B00059FF2046BDE8F087BAF1000F14D0082047
:1059C00002F014F800283FD00122C0F804900260D1
:1059D000016801F003015DB922680A430260626850
:1059E00020606AB960600BE04846C9F800A0EFE7A4
:1059F0002A68032A1DD801606168A1B9C4E90000C2
:105A00000024384601F058FC08BB40F23113124A1A
:105A10001849134803F056F83946174803F052F86E
:105A200040F231118CE70A6802F0030202430A6077
:105A3000D8E722F003020A4302602A6802F0030258
:105A400040EA02032B60DBE76FF00B04D9E788F331
:105A50001188BFF36F8FACE7CFA7000028A8000024
:105A6000599C00003DA80000DEB30000B3B3000065
:105A7000F6B30000FCA7000013A800002DE9F743CF
:105A8000064690461F4600F10805EFF311892023D2
:105A900083F31288BFF36F8F284601F0FFFB68B9CC
:105AA0008823254A2549264803F00CF8294625482D
:105AB00003F008F88821204802F0FBFF284601F097
:105AC00011FC3468FCB12368726823F0030394422C
:105AD00020464FF00101336008BF736003F01EFBE6
