:10000000A83D002025150000DF5E0000111500004E
:100010001115000011150000111500001115000048
:100020000000000000000000000000009116000029
:100030001115000000000000291600001115000035
:10004000FD170000FD170000FD170000FD17000060
:10005000FD170000FD170000FD170000FD17000050
:10006000FD170000FD170000FD170000FD17000040
:10007000FD170000FD170000FD170000FD17000030
:10008000FD170000FD170000FD170000FD17000020
:10009000FD170000FD170000FD170000FD17000010
:1000A000FD170000FD170000FD170000FD17000000
:1000B000FD170000FD170000FD170000FD170000F0
:1000C000FD170000FD170000FD170000FD170000E0
:1000D000FD170000FD170000FD170000FD170000D0
:1000E000FD170000FD170000FD170000FD170000C0
:1000F000FD170000FD170000FD170000FD170000B0
:10010000FD170000FD170000FD170000FD1700009F
:10011000FD170000FD170000FD170000FD1700008F
:10012000FD170000FD170000FD170000FD1700007F
:10013000FD170000FD170000FD170000FD1700006F
:10014000FD170000FD170000FD170000FD1700005F
:10015000FD17000053B94AB9002908BF00281CBF89
:100160004FF0FF314FF0FF3000F00CB8ADF1080C4C
:100170006DE904CE00F012F8DDF804E0DDE90223B9
:1001800004B07047704700BF10F8012B11F8013B15
:10019000012A28BF9A42F7D0D01A70472DE9F047BC
:1001A00086468C460846089E154674461946002B1E
:1001B00040F0C1808542B2FA82F245D94AB1C2F11B
:1001C000200300FA02FC954094402EFA03F343EA20
:1001D0000C0C4FEA154EA8B2230CBCFBFEF80EFB2C
:1001E00018CC08FB00F943EA0C43994528D9EB18D1
:1001F00008F1FF3704D2994502D9A8F102072B4430
:10020000A3EB0903A4B2B3FBFEFC0EFB1C330CFBF7
:1002100000F044EA0344A04214D92C190CF1FF3336
:1002200004D2A04202D9ACF102032C44241A43EABE
:1002300007401EB1D440002334607360BDE8F087EE
:100240004746DDE76346F1E792BB431B01214FEAD6
:10025000154EAFB2200CB3FBFEFC0EFB1C330CFBA7
:1002600007F840EA0343984561D9EB180CF1FF30D9
:1002700004D2984502D9ACF102002B44A3EB080349
:10028000A4B2B3FBFEFC0EFB1C330CFB07F744EAE5
:100290000344A7424DD92C190CF1FF3304D2A742D5
:1002A00002D9ACF102032C44E41B43EA0040C0E74E
:1002B000C2F120039540944020FA03F12EFA03F393
:1002C0004FEA154E9040AFB20343B1FBFEFC0EFB6C
:1002D0001C10190C0CFB07F841EA0041884522D993
:1002E00069180CF1FF3004D2884502D9ACF1020044
:1002F0002944A1EB08019BB2B1FBFEFC0EFB1C11D3
:100300000CFB07F743EA01439F420ED9EB180CF1AF
:10031000FF3104D29F4202D9ACF102012B44DB1B16
:1003200041EA004193E76046E3E76146F7E760464C
:10033000A4E76346B8E7834206D916B90021084608
:100340007CE7C6E900E0F9E7B3FA83F78FB98342A7
:1003500001D3724508D8BEEB020460EB0303012011
:100360009C461EB9002169E73846FAE7C6E9004C09
:10037000F8E7C7F1200CBB400EFA07F522FA0CF49F
:100380002EFA0CF1BA401C4320FA0CF3B8404FEAA5
:10039000144901431FFA84FEB3FBF9F809FB183036
:1003A0000B0C08FB0EFA43EA00439A4540D9E318C8
:1003B00008F1FF3004D29A4502D9A8F10200234483
:1003C000A3EB0A0389B2B3FBF9F809FB183308FB66
:1003D0000EFE41EA03418E452CD9611808F1FF3326
:1003E00004D28E4502D9A8F10203214443EA004019
:1003F000A1EB0E01A0FB02984145CE46434602D335
:1004000006D14D4504D20138B9EB020E68EB040366
:10041000002EA7D0B5EB0E0261EB030101FA0CFC34
:1004200022FA07F3F9404CEA0303C6E9003199E7E1
:100430004046C5E74346D9E7014603488368DB6980
:100440000BB1012218477047A46C000008B50021C9
:10045000064805F0EBF90121054805F0E7F9BDE88C
:1004600008400021034805F0E1B900BF30710000E9
:10047000287100002071000008B50121064805F030
:10048000D5F90121054805F0D1F9BDE80840002162
:10049000034805F0CBB900BF30710000287100009F
:1004A0002071000008B5074805F029FC0023064A22
:1004B0001370064A1370064A1370BDE80840FFF730
:1004C000DBBF00BF0C730000D71C0020D61C00202F
:1004D000D51C002008B50121064805F0A7F9002128
:1004E000054805F0A3F9BDE808400021034805F0E0
:1004F0009DB900BF3071000028710000207100001C
:1005000008B50021064805F091F90021054805F0DD
:100510008DF9BDE808400021034805F087B900BF08
:1005200030710000287100002071000008B50A48F1
:1005300005F0E5FB094A137883F00103137033B12A
:10054000074805F0DCFBBDE80840FFF7D9BF0548C8
:10055000BDE8084005F0D3BB28730000D41C002080
:100560003F7300005673000008B50B4805F0C7FB49
:100570000A4B0B491A7882F001021A7000220A70A5
:1005800008490A701B781BB1BDE80840FFF7A2BFFD
:10059000BDE80840FFF7B4BF6E730000D71C002011
:1005A000D61C0020D51C002008B50B4805F0A7FB81
:1005B0000A4B0B491A7882F001021A7000220A7065
:1005C00008490A701B781BB1BDE80840FFF754BF0B
:1005D000BDE80840FFF794BF7E730000D61C0020E2
:1005E000D71C0020D51C002008B50B4805F087FB60
:1005F0000A4B0B491A7882F001021A7000220A7025
:1006000008490A701B781BB1BDE80840FFF71EBF00
:10061000BDE80840FFF774BF91730000D51C0020AF
:10062000D71C0020D61C00202DE9F04600248DB0F8
:100630002F4F2022214604A88DF80F4006F0C6F95E
:10064000BB682C4EDFF8B0900193019B1B68002B18
:100650004BD038460DF10F0198470546002844D18C
:100660009DF80F300D2B01D00A2B2CD19CB34FF0ED
:10067000000A04F130030DEB0304304604A904F82A
:1006800020AC05F03CFB242004F0B0FA044648B945
:100690001A4805F034FB2022214604A806F096F9FA
:1006A0002C46D2E71F2204A9043006F097F9214610
:1006B000484684F823A006F01BF82022514604A8DF
:1006C00006F084F907E01E2C09DC04F130026A44CC
:1006D00002F8203C651C0A2005F0BEF8E0E7084857
:1006E00005F00DFB20222946E9E72546F3E700BF88
:1006F000C46C0000A37300007C010020B1730000F3
:10070000CA7300002DE9F74F704FDFF8C4814FF036
:10071000FF324FF0FF336F4803F0C6FB044600285A
:10072000F5D0061D3146384605F0E9FA4146304617
:10073000FFF72AFD054600283ED1674805F0DFFA9D
:10074000664EDFF89C91DFF89CA1DFF89CB1D9F8E8
:100750000030AB4203DC204606F000F9D7E70C205E
:1007600004F044FA014618B9604805F0C8FAF2E707
:1007700033790371B268522B826008D0592B16D09E
:10078000472B0AD15A4805F0B3FF5A4803E05046B8
:1007900005F0AEFF584605F05DF84FF0FF324FF020
:1007A000FF33554803F0E6FB01350C36CFE75348DD
:1007B00005F09EFF5248EEE700238DF803304FF41A
:1007C0007A7301932379542B02D16379002B41D0A2
:1007D00030464C4901AB0DF1030204F0C3FB022883
:1007E0000AD19DF80330473BDBB2122B04D8464AAE
:1007F00042FA03F3D90711D52179A1F14703DBB2FE
:10080000122B27D8404A42FA03F3DA0722D463793D
:1008100003BB4FF47A738DF8031001939DF8031016
:10082000019A3A4805F06BFA2D490B68FF2B16DC4C
:100830000C202A4A00FB03229DF8030001331071AB
:1008400001980B6090600C2004F0D0F9014650B97B
:100850002F488AE731462F4805F051FA7BE72E48AA
:1008600005F04DFAEFE79DF80330019A522B037122
:10087000826008D0592B21D0472B24D11C4805F089
:1008800037FF1C4803E0174805F032FF164804F014
:10089000E1FF9DF80330473BDBB2122B3FF65BAF25
:1008A000194A42FA03F3DB073FF555AF4FF0FF3229
:1008B0004FF0FF33104803F05DFB4CE70F4805F0A5
:1008C00017FF0F48E3E706F049F8E2E7E17300009D
:1008D000FA7300007C010020FC7300009C070020DC
:1008E000980700209C010020C4010020197400001A
:1008F0008C010020BC0100206C010020AC01002014
:10090000CC01002036740000FEF7FBFF517400009C
:100910008C7400003C74000076740000F8B51E4D25
:100920001E4E1F4F4FF0FF324FF0FF33284603F0AB
:10093000F3F900220023304603F0B6FA0446B8B1BA
:10094000284603F061FAA168384605F0D8F9FFF7A8
:100950007DFDA06804F080FFFFF7D2FD114805F08F
:10096000CEF9114803F0D2FA204605F0F7FFD9E797
:100970004FF0FF324FF0FF3329460C4803F058FB8D
:1009800000220023304603F08FFA0446284603F085
:100990003BFA002CC6D0D6E7F40000208C010020E2
:1009A000A9740000BB7400006C010020BC01002091
:1009B000F8B51E4D1E4E1F4F4FF0FF324FF0FF3364
:1009C000284603F0A9F900220023304603F06CFA10
:1009D0000446B8B1284603F017FAA168384605F076
:1009E0008EF9FFF749FDA06804F036FFFFF788FD98
:1009F000114805F084F9114803F088FA204605F003
:100A0000ADFFD9E74FF0FF324FF0FF3329460C48D6
:100A100003F00EFB00220023304603F045FA0446A3
:100A2000284603F0F1F9002CC6D0D6E75801002083
:100A3000AC010020C6740000D97400006C010020D5
:100A4000CC010020F8B51E4D1E4E1F4F4FF0FF3257
:100A50004FF0FF33284603F05FF9002200233046B1
:100A600003F022FA0446B8B1284603F0CDF9A16894
:100A7000384605F044F9FFF72DFDA06804F0ECFEC0
:100A8000FFF73EFD114805F03AF9114803F03EFA30
:100A9000204605F063FFD9E74FF0FF324FF0FF33F8
:100AA00029460C4803F0C4FA00220023304603F024
:100AB000FBF90446284603F0A7F9002CC6D0D6E778
:100AC0001C0100209C010020E5740000F57400006A
:100AD0006C010020C401002008B5074805F0DCFCCB
:100AE00028B9064805F00BF94FF0FF3008BD04485F
:100AF00005F005F90020F9E7C46C0000FE74000061
:100B00001875000010B5444804F0B9FE30B94348E8
:100B100005F0F5F84FF0FF34204610BD4FF480315A
:100B20003F4804F04AFE08B13E48F1E73C4804F073
:100B300063FE0028EED13C483C4B436004238360B5
:100B4000FFF77AFC344804F09AFE08B93848DFE72A
:100B50004FF48031374804F030FE0028DAD13548B0
:100B600004F04AFE0028D5D13348344B43600823B3
:100B70008360FFF761FC284804F081FE08B9304823
:100B8000C6E74FF480312F4804F017FE0028C1D18A
:100B90002C4804F031FE0028BCD12B482B4B43607D
:100BA00010238360FFF748FC1B4804F068FE08B977
:100BB0002748ADE74FF48031264804F0FEFD0028B9
:100BC000A8D1244804F018FE0028A3D12248234BC2
:100BD000436040238360FFF72FFC0F4804F04FFE73
:100BE00008B91F4894E74FF480311E4804F0E5FD32
:100BF00000288FD11B4804F0FFFD0446002889D14E
:100C000019481A4B436020238360FFF715FC1848EE
:100C100005F075F880E700BFA46C00002A7500009D
:100C20001871000048750000CC1300202D0500004D
:100C30006A75000010710000C013002069050000F3
:100C40008875000008710000B4130020A905000099
:100C5000A675000000710000A8130020E90500003F
:100C6000C4750000F87000009C130020A50400006B
:100C7000E275000008B52A4804F001FE20B92948B1
:100C800005F03DF8002008BD254804F0F8FD0028D7
:100C9000F5D0234804F0F3FD0028F0D04FF4B01154
:100CA000214804F08AFD08B12048E9E74FF4B0116B
:100CB0001F4804F082FD08B11E48E1E74FF4B0116F
:100CC0001D4804F07AFD08B11C48D9E7FFF718FC6D
:100CD000FFF702FF08B11A48D2E7FFF713FF002819
:100CE00001DA1848CCE7184805F009F8174805F06C
:100CF00006F8174805F003F8144805F000F8154801
:100D000004F0FDFF144804F0FAFF144804F0F7FF64
:100D1000134804F0F4FF134804F0F1FF0B48AFE769
:100D2000A46C0000FB75000030710000127600001A
:100D3000287100003076000020710000507600001D
:100D40006F7600008B760000F3740000A976000037
:100D5000C9760000E5760000027700000A770000FF
:100D60001177000019770000014B1B68184700BF7E
:100D700000000020014B1860704700BF00000020F9
:100D800030B585B004460D4610220021684605F0B6
:100D90001DFE02238DF80230044B2A462146684688
:100DA000019304F0FFF805B030BD00BF690D0000ED
:100DB00080B505460E461746984603F05FFC03468D
:100DC00005F00EFF0446DFF81890424649F800305F
:100DD00039463046A84754F8090000F00FFC00BF20
:100DE000080000002DE9F047058B044628079046CF
:100DF00011D4022905F0070540F0CC80204604F00C
:100E00008BFF78B10138218B042811D8DFE800F07E
:100E1000C2106D85950001290CBF45F0100545F005
:100E20002005258388F31188BFF36F8FBDE8F08715
:100E300001F0070AAA4500F0A5800027B9463E4602
:100E4000A368002B00F0BC8041F00801218388F3E7
:100E50001188BFF36F8FA168002900F0BA800D6878
:100E6000002900F0B680334652462046D1F804806F
:100E7000C047002D76D02B6829461D46F0E701F0CB
:100E800007035A1F012A1BD8002221F00701062B55
:100E9000276889B2C4E9002209D13B4603E0628B8E
:100EA000013262831B68002BF9D141F00201204618
:100EB000218304F031FF00287AD041F0200176E050
:100EC000042B0AD121F0070189B22046218304F0C6
:100ED00023FF10B141F020012183218B01F0070A8B
:100EE000AA454FD00027B946AAE7236921F0070198
:100EF00041F00601062DD3F8009021832DD1B9F1E0
:100F0000000F3FD041F00801218388F31188BFF31F
:100F10006F8F20463949C84729E021F0070123692E
:100F200041F0040189B2042DD3F804902183E6D066
:100F300000274FF0040A3E4682E721F007012369AB
:100F400041F0050189B2052DD3F808902183D6D050
:100F500000274FF0050A3E4672E700274FF0060AC9
:100F60003E466DE72B4687E7B9F1000FD1D1EFF38D
:100F70001188202383F31288BFF36F8F238B23F014
:100F800008032383258BEA062ED525F0100323833F
:100F900005F007056669218B002EBFF670AF0023B0
:100FA0002768C4E9003321F0070141F001012183E2
:100FB000218B4FF0000901F0070AAA457FF440AFEA
:100FC000002F9CD041F00801218388F31188BFF3E2
:100FD0006F8F002FC8D03D683946334652462046B1
:100FE00004F0C6FE2F46F4E7AB067FF51BAF25F0F5
:100FF0002003238305F0070500E700BF9D5D000087
:10100000014B0360002070473871000008B50448A8
:1010100004F075FEBDE80840024804F070BE00BF51
:101020005177000086770000014803F059BE00BFE9
:101030003871000038B5044618B90F4B0F485B688B
:1010400098476168B1F5683F10D0B1F5680F0DD0D1
:101050000B4DA9420AD011F46861206807D00146FF
:10106000084805F072FA00232360656038BD142239
:1010700005F0ACFCF9E700BF60000020B477000089
:101080002C5F5CA9D818002008B560B34368B3F59D
:10109000683F0ED0B3F5680F18D0144A934220D0A1
:1010A00000684FF0FF324FF0FF3302F035FE58B1C9
:1010B00015E001220368D3E8EF1F002903D1C3E83C
:1010C000E02F0028F7D10AD1002008BD0368084AA4
:1010D0001B7803F5807352F82330002BF4D00548B9
:1010E000F3E70548F1E76FF4E040EEE72C5F5CA919
:1010F00000000350E98FFFFFEA8FFFFF08B520B320
:101100004368B3F5683F09D0B3F5680F13D0114AAF
:1011100093421DD0006802F077FE14E000220368BD
:10112000D3E8EF1F012903D1C3E8E02F0028F7D14E
:1011300009D0094808BD00210368084A1B7803F557
:10114000807342F823100020F4E76FF4E040F1E7E9
:101150000348EFE72C5F5CA9E98FFFFF0000035015
:10116000EA8FFFFF10B5044618B91D4B1D485B6898
:1011700098476368B3F5683F2FD0B3F5680F2CD05C
:10118000194A934219D1236803BB4FF0FF324FF045
:10119000FF332146154802F091FD08B923681BB9B9
:1011A0000F4B13485B68984714220021206805F014
:1011B0000DFC4FF46863636008E0B3F5683F0DD839
:1011C0003A2B03D040F6BA629342DED1206805F094
:1011D00007FA636843F03A03636010BD054AF3E71A
:1011E00060000020B47700002C5F5CA9D8180020B4
:1011F000DA7700003A00003A08B506494023142285
:10120000054805F094F9BDE808400449044803F096
:10121000D9BD00BFD8130020D818002040710000AD
:101220005471000030BFFFF7FDBF00BF2DE9F04152
:1012300005460B4EDFF82C80324606EB0807CC1B28
:101240002046094905F0B5FBA01942460021083C9B
:1012500005F0BCFBC5F8A44007F10800BDE8F0812B
:101260000000000004000000EC700000054B5A690B
:101270009B689A421FBF044A536843F080535360EF
:10128000704700BFCC1A002000ED00E0154B9A6AB1
:1012900012F0007F9A6A14BF1E201D2012F0807F7A
:1012A0009A6A18BF1F2012F4801F9A6A18BF022082
:1012B00012F4002F9A6A18BF212012F4802F9A6A24
:1012C00018BF222012F4003F9A6A18BF232012F49C
:1012D000803F9A6A18BF24206FEA02426FEA1242E6
:1012E0009A62704700ED00E010B5194B0246986A0B
:1012F0009C6A10F4805F14BF1720162014F4006F4E
:101300009C6A18BF1820A40509D5986B986A000438
:1013100004D51AB19A6A22F400429A6219200C4B41
:101320009A6A12F4806F9A6A18BF1A20D2050CD4F8
:101330009B6A13F4005F18BF1C20054A936A43F4AC
:101340007F43936200230B7010BD1B20F5E700BFA5
:1013500000ED00E010B51C4B0246986A9C6A10F044
:10136000100F14BF1120102014F0080F9C6A18BF32
:101370001220A40709D5586B986A000604D51AB143
:101380009A6A22F080029A6213200F4B9A6A12F036
:10139000010F9A6A18BF142012F0200F9A6A18BF22
:1013A0001520D40658BF9B6A074B9A6A920642BF23
:1013B0005A6A22F400525A629A6A42F0FF029A6212
:1013C00000230B7010BD00BF00ED00E0F0B5474BEF
:1013D00004465B6800258BB0C3F3080385F31188CE
:1013E000BFF36F8F02F07F40B0F17F4F11D102F059
:1013F0000C0008280DD010074CBF0C460125002218
:10140000033B8DF80720032B05D8DFE803F02462A7
:10141000665F2C46F3E700239DF80720CAB902AEA9
:1014200004F12007324620686168083403C2BC42D8
:101430001646F7D1099A002D53D0C2F3080121B9FD
:101440006FEA52226FEA42220992184602A904F07A
:101450003CFD0BB0F0BD254BDA6A9107DBD4DA6AAC
:10146000002AD8DBDA6A5200D5D55A69A16942F45C
:1014700080725A61BFF34F8FBFF36F8F5A6931F893
:10148000021C22F480725A61BFF34F8FBFF36F8F3B
:101490004DF60272914209D09A6AD2B242B101204D
:1014A0000DF10701FFF756FF0346B5E72368B3E7E1
:1014B0009A6A12F47F4F05D001200DF10701FFF762
:1014C00013FFF1E79B6AB3F5803FA4D3FFF7DEFE7D
:1014D000EAE700200DF10701E4E700200DF1070124
:1014E000EDE722F4FF7222F00102ADE700ED00E02B
:1014F000064B5A6942F010025A615A6942F48062FE
:101500005A615A6922F008025A61704700ED00E002
:10151000EFF30880EFF3098101B57246FFF756FF3C
:1015200001BD00BF002080F31488BFF36F8F00203F
:1015300080F30A8880F30B88104880F30888002025
:101540000F49087001F0E8FB00200E490860BFF366
:101550004F8F00F02DF8202080F311880A484FF4B7
:101560000061401880F30988EFF3148002210843DA
:1015700080F31488BFF36F8F00F0DCF8A83D0020E3
:10158000DD1C002094ED00E06830002000231846A8
:101590000649D1F89020C2F30722934200DB70473E
:1015A000C1F89830C1F8A0000133F6E700ED00E083
:1015B00010B572B6002484F31388FFF7E7FF2346C3
:1015C0004FF0FF300C4A03F120010133102B42F899
:1015D0002100F8D100234FF0FF30074A03F16001EA
:1015E0000133102B42F82100F8D162B6BFF34F8FC0
:1015F000BFF36F8F10BD00BF00E100E0084B9B6898
:1016000083420BD1EFF3058343B1064B5A6842F096
:1016100080525A605A6A22F400425A6203F034B887
:10162000CC1A002000ED00E016498A684FF0300027
:101630001044EFF3098C80E8F01F202080F312881B
:10164000BFF36F8F104F4FF000664A698A603E60AB
:10165000D2F8A4000D4C2060D2F8A8000023C2F8F4
:10166000A83080F3118802F1300090E8F01F8CF36D
:10167000098802F1000004B504F03CFCBDE8044018
:1016800070470000CC1A002004ED00E0F4180020A0
:101690001EF0040F0CBFEFF30880EFF3098081699F
:1016A00011F8021C0229FFD001B5724604F013FCA8
:1016B00001BD00BF40B2002807DB01234109034AF6
:1016C00000F01F00834042F82130704700E100E045
:1016D000054B420953F82220012300F01F0003FAB2
:1016E00000F01040704700BF00E100E040B2002869
:1016F00001F10101ACBF00F16040064B4FEA41111E
:10170000C9B2ABBF00F5614000F00F0080F80013D4
:101710001954704714ED00E0044B054A23F07F0391
:101720009360BFF34F8FBFF36F8F704700000000CF
:1017300000ED00E008B5FFF7EFFF074AD2F8883068
:1017400023F47003C2F8883002F0F8F903F0E0F8EF
:1017500000F048F802F036FA00ED00E042F8203CD4
:10176000009B0B4942F81C3C019B21F0010142F80F
:10177000183C029B42F8081C42F8143C4FF080735E
:1017800042F8043C0023203A0265C0F8A8307047B4
:10179000B10D000000B50C4B15469860D0F8A420A0
:1017A0000A4B0E461A60D0F8943083F30B882C460F
:1017B00086F309880020064B984720460021002226
:1017C0000023044C204700BFCC1A0020F41800204E
:1017D000FF5E0000B10D00001022014B1A6170473E
:1017E00000ED00E0002320210348C2180133452BFF
:1017F00082F80013F9D1704700E100E008B5EFF37B
:101800000583064A103B02EBC30152F833004968D6
:101810008847BDE80840FFF729BD00BF046D000000
:101820001FB5094C094A23460121094800F0FAF87E
:1018300000230393074B0121E41A01A801930294AA
:1018400000F0FAF804B010BD0000072000000020EE
:1018500064710000D801002010B50C7A0B6804F008
:101860001F0223F01F031A43CB68640923F01F03F0
:10187000054943EA440343F00103C1F89800C1F865
:101880009C20C1F8A03010BD00ED00E010B5074B62
:10189000D3F89030C3F30723013B984202D8FFF7F7
:1018A000DBFF10BD6FF01500FBE700BF00ED00E0AF
:1018B0002DE9F04F0F46144606464FF000084D4DF7
:1018C00085B0B84580F29280D6F80490B9F1000F47
:1018D00036D0B9F11F0F40F2878019F01F0F40F08A
:1018E0008380D6F800A01AF01F0F7DD1504604F077
:1018F00042FB834609EB0A00013804F03CFB8345B8
:1019000072D11BF1160F6FD05C456DDDC5F898B034
:10191000D5F89C10C5F898B0D5F8A03021F01F017B
:1019200043F01F0AD6E900321A44994202F1FF3906
:101930001ED1CA4508D131465FFA8BF004F024FB72
:1019400008F101080C36BCE73146C5F898B0D5F867
:101950009C3022F01F0203F01F031343C5F89C3094
:10196000E0B204F011FB10F1160F3DD0441CE7E784
:10197000C5F898B0D5F8A020013B23F01F0302F072
:101980001F021343CA453146E0B2C5F8A030E8D083
:1019900004F0FAFA10F1160F26D0C5F898B0D5F871
:1019A0009C209DF808300AF1FF3A62F304038DF899
:1019B0000830D5F8A0309DF808205B0863F3471283
:1019C0008DF80820D6E900321344009323F01F035A
:1019D0005344A3EB0903013023F01F036946C0B24F
:1019E0000393FFF753FFBEE76FF01504204605B0E1
:1019F000BDE8F08F00ED00E00522044BC3F8942011
:101A0000BFF34F8FBFF36F8F704700BF00ED00E053
:101A1000BFF35F8F0022024BC3F89420704700BFD2
:101A200000ED00E010B5034C2278FFF741FF207075
:101A300010BD00BFD81C00202DE9F74F294D8A4664
:101A400006464FF00008AB46274FD0451BDAD6F8C4
:101A50000490B9F1000F3FD031680846019104F0BD
:101A60008AFA0199044609EB0100013804F083FA6F
:101A700084424FF014021D4B08D002FB08F36FF0B4
:101A800015024BF8032003B0BDE8F08F14F1160FD8
:101A90002C60F8D01978A142F5DD02FB08B0C7F838
:101AA0009840C7F89840D7F89C4000F10801007BA7
:101AB00064F304000871D7F8A0000C79400860F3C3
:101AC00047140C71D7F89C1021F01F016960D7F8FA
:101AD000A01021F01F01296108F1010814350C360E
:101AE000B3E700BFF818002000ED00E0D81C00208C
:101AF000F0B54149414CD1F890302568C3F3072334
:101B00009D4287B075D80020FFF782FF3C4BC1F89B
:101B1000C030854216D13B4C01A82570FFF770FA02
:101B200000250646384FAE4213D1002023783249B3
:101B3000D1F89020C2F30722934254DBFFF75CFFF9
:101B400000202FE0616801EB0011FFF785FE0130F6
:101B5000DFE70199280101EB0513DA683A40B2F595
:101B6000001F21D0B2F5800F2BD0B2F5801F38D1E5
:101B70005A689B680958013B22F01F00034401206A
:101B8000844623F01F0340EA4C10CDE902218DF872
:101B9000100002A920780593FFF778FE00281DDACF
:101BA0006FF0150007B0F0BD5A689B680958013BFB
:101BB00022F01F0003444FF0020C012023F01F030A
:101BC000E1E75A689B680958013B22F01F00034473
:101BD0004FF0000C062023F01F03D4E723780133D5
:101BE000237001359FE7C1F89830C1F8A000013398
:101BF0009EE74FF0FF30D5E700ED00E07071000088
:101C0000AAFF4400D81C00200000F0FF08B5024BDA
:101C10001B689847002008BD0C190020034B044A9C
:101C20001860937843F00203937070470C190020FA
:101C30002400002008B50649064821F00701C1F13B
:101C4000005202F5E02204F000F8002008BD00BFB9
:101C5000AF41002010190020054B03EB8000D0F8A5
:101C6000003223F0E04343F04053C0F800327047A5
:101C700000258450052370B5144D154E2C78013481
:101C8000B4FBF3F303EB8303E41A04F05BFB114AA8
:101C9000137823B156F82430C01A072814D94FF00E
:101CA0005023D3F8141141B10021C3F81411D3F813
:101CB00014312C700CB9012313702C7804F042FB02
:101CC00046F82400012070BD0020FCE7DA1C00204B
:101CD0001C190020D91C0020012208B50B4B0C490F
:101CE000C3F8002502230020C1F8D036FFF7B4FF67
:101CF0001046FFF7B1FFC1F80427C1F80429C1F865
:101D0000002BBDE8084000F0A5B800BF001000504F
:101D10000040005007B50DF1070001F04BF90F4BE3
:101D2000984218D14FF480620D4B0E49C3F8B82584
:101D30004FF40062C3F83C259DF8070004F019FB3E
:101D40009DF80700084904F00FFB01209DF80730BB
:101D5000984001F029F903B05DF804FB0000AD0BD9
:101D600000A002502CA0025028A1025048B1054BFF
:101D7000054A1B68B3FBF2F35843044B43F00103DD
:101D8000184770473400002040420F00F0700000F8
:101D9000002170B5104C114D114E000714F8013B95
:101DA00003F01F025B090FD0012B0FD1334603EB69
:101DB0008203D3F80022013122F0E04202430429D9
:101DC000C3F80022EAD170BD2B46F0E70023803231
:101DD00053F82230FFDE00BF1A780000002584503F
:101DE000002884502DE9F041064601200D46FFF7FA
:101DF000CFFF4FF47F03D3F83021D3F83431072AD3
:101E000020D1023B032B02D8114AD35CD3B14FF04F
:101E100050244FF0010800270520C4F81886C4F8A4
:101E2000147604F09FFA4046C4F8148604F09AFA37
:101E3000C4F81476C4F8187630462B46BDE8F04155
:101E4000002118474FF050230022C3F81426F3E76F
:101E5000167800000149024803F0ADBF98710000F8
:101E600030190020044B0020D3F80425D20744BFCA
:101E70000022C3F80425704700D00050084B70B50D
:101E8000C31A0D4607499B10044659434022064891
:101E900004F0B2F82B4601462046BDE870401847D2
:101EA00060190020B76DDBB6646C0000402373B589
:101EB0000B4C0093041B0B460D460A49A4106143CA
:101EC0000646094A094804F0C3F8011E05DA3046FF
:101ED0002B4602B0BDE87040184702B070BD00BF8D
:101EE00060190020B76DDBB6BB600000646C0000B9
:101EF00010B5EFF31184202383F31288BFF36F8FA3
:101F0000074A136823F00201DB07116002D40120A5
:101F100004F03BFA84F31188BFF36F8F10BD00BF4C
:101F2000001A00202DE9F843002201210646052071
:101F3000FFF7DCFB114801F0BDF8114B984219D1B5
:101F400001F0C8F800244FF01C090C27DFF834809A
:101F50003569414609FB045003F02DFF002807DBDB
:101F6000012307FB04551C44042CAB67F0D100206F
:101F7000BDE8F8836FF00400FAE700BF812000009D
:101F80000000AD0BA47100001FB500220123CDE9B4
:101F900002236B46084ACDF800D0CDF804D004F0F7
:101FA00085F8002805DB4FF480420023684601F0E5
:101FB000E1FF05B05DF804FBF16000000C22104B5E
:101FC000014602FB0033002030B4D3E91C521867ED
:101FD000EFF31180202484F31288BFF36F8F9C6F7E
:101FE00004F0C00444F002049C6780F31188BFF33E
:101FF0006F8F1DB12B4630BC0248184730BC70476C
:1020000060190020646C000010B4EFF311822023EB
:1020100083F31288BFF36F8F1748016841F0020401
:102020000460C80707D482F31188BFF36F8F0120C3
:1020300010BC01F067B84FF05021D1F80C04D1F872
:102040000C14C907EFD5EFF3118083F31288BFF3A7
:102050006F8F0A498B6F03F0C00343F002038B6755
:1020600080F31188BFF36F8F82F31188BFF36F8FF6
:10207000002010BCFFF7A2BF001A0020601900204A
:10208000092813D8DFE800F00510121212121212FC
:102090000E0C074B986F10F0070007D1FFF78EBFAB
:1020A0000220FBE70320F9E70120F7E7704700BFB4
:1020B000601900202DE9F041012207463649D1E898
:1020C000EF3FC1E8E02F0028F9D133B93349344854
:1020D0004B60CB608A6003F081FE7B1E012B2BD806
:1020E000012F07D14FF05023D3F81C3403F0030322
:1020F000022B21D004F014FB0546F8B9294B1B78BC
:10210000E3B14FF0502302220646C3F808234FF0F4
:102110005024DFF89480D4F81824D4F81834D2036B
:1021200015D503F00303022B01D0012F0FD16DB39E
:1021300086F31188BFF36F8FBDE8F081EFF311864E
:10214000202383F31288BFF36F8F0125DFE7C5B12A
:10215000304603F0F4FED4F81835DBB2012BDAD1A7
:10216000D4F80421002AD6D00022C4F80421D4F8DF
:1021700004210222C4F818252022C8F88021A36077
:10218000C9E70021212004F067FBE4E74FF050236A
:102190000222C3F80423CFE75C1900204C19002069
:1021A0007C190020DD1C002000E100E008B5074894
:1021B00004F072F938B10648FFF730FD0448FEF725
:1021C000D9FD002008BD6FF01200FBE7C46C0000D1
:1021D000D52100000A2838B50446074D04D1AB6864
:1021E0000D2128465B689847AB6803485B68E1B2FD
:1021F0009847204638BD00BFC46C0000F0B51646B5
:10220000426801F01F04107B87B044EA4014106953
:10221000002871D0B6F5001F02F1100506D1214645
:10222000284604F032F9002007B0F0BD0027B6F5CB
:10223000800F01A80197476039D1B3F1007F14BF27
:10224000052304238DF804300023CDE90403039310
:1022500093680DF1030723FA01F111F001013DD15B
:10226000B6F1A07F3AD104F01F03620903F18003A5
:1022700028D0012A46D1254A52F82330DB072DD435
:102280003A462146284601F047FA214B98421BD096
:1022900002972146284603AA01F0F6F81D4B984202
:1022A0002DD101222146284601F08EFABBE7B3F179
:1022B000C06F05D0B3F1007F14BF01230223C1E733
:1022C0000323BFE7144AD7E73946284601F074FADA
:1022D000104B9842DCD06FF00B00A5E73A46214640
:1022E000284601F019FA0B4B9842D2D128469DF8A6
:1022F000031001F059FACCE76FF0850094E76FF016
:10230000150091E751F82330FFDE00BF002884500C
:102310000400AD0B0000AD0B0025845042090346BC
:1023200070B502D0012A17D070BD0D4E32695168C8
:102330000029F9D0012503F01F030C689D400029F6
:10234000F2D08A682A4002D030464B6898472CB1B8
:10235000236821461C46F2E7024EE7E72346F8E7EA
:10236000A46C0000846C000038B545682B69B3B1DB
:102370001035284601F00EFA044680B90146284679
:1023800001F0E4F9084B98420BD122462846074950
:1023900001F0BCF9224605210D20FFF7A7F9002026
:1023A00038BD6FF00400FBE70000AD0B1D230000FB
:1023B0002DE9F04340F206354668D00648BF0320B9
:1023C000337B02EA050558BFC2F3401087B001F025
:1023D0001F07B5F5837F144647EA43178DF80300BE
:1023E00043D00FD8062D18D007D8B5B1022D3ED056
:1023F0006FF0150007B0BDE8F083B5F5807FF7D129
:1024000001250AE040F20222954232D0B5F5407F24
:1024100031D0B5F5007FEBD1022522032DD5012364
:1024200072688B409360326982BB07F01F037F099B
:102430002AD0012F77D13E4A02EB830284F4803305
:10244000D2F80012C3F30043C4F3404444EA430407
:1024500021F4706144EA800421F00F0144EA05236D
:102460000B43C2F800320020C4E70725D5E7042556
:10247000D3E70525D1E70325CFE7630341BF012358
:1024800072688B40D360CEE72A4AD5E710363946CA
:1024900030460DF1020201F03FF914F4403F80464E
:1024A0000CD13946304603F0EEFF234B9845DAD184
:1024B00030469DF8021001F077F9D4E74FF000099B
:1024C00001AB3946304603AACDE90439CDE901997B
:1024D000CDF80C9000F0D8FF174B984288D114F437
:1024E000003315D09DF8033084F48034C4F30044E5
:1024F0008DF80E3039464B46304603AA8DF80C5005
:102500008DF80D4001F080F80B4B9842CDD06FE76D
:10251000CDE9043339460DF10303304603AA039392
:1025200000F0B2FFF0E7803352F82330FFDE00BF47
:1025300000288450002584500000AD0B10B50B4CD2
:10254000204603F0A9FF70B12269A16813682046F4
:1025500023F4001313600B684FF4C0221521984731
:1025600000EAE07010BD6FF01200FBE7A46C000001
:10257000036803F01F025B09026004D0012B0348CB
:1025800018BF002070470248704700BF00288450E1
:10259000002584502DE9F04F1546834640F2FF1880
:1025A000DFF87C91DFF87CA185B000EB8101594513
:1025B00003D1002005B0BDE8F08FDBF80030C3F395
:1025C000C322082AC3F3080400F2A4801B0E44456A
:1025D00008BF4FF0FF3419F80270192B00F29D80EC
:1025E000DFE803F00D141A1D20261D9B9B9B9B35D5
:1025F0006265686B6E7174779B9B7A8F9295C5F854
:102600000C45601C72D10BF1040BD0E7C5F81445E2
:10261000621CF8D0002672E0C5F80845F1E7C5F85D
:102620001045F5E7631CC5F80845ECD0002604E02A
:10263000C5F80C45661CE6D0012603A80394FFF7F5
:1026400097FF0122039B02FA03F3C36008E0C5F879
:102650000845002FDCD1601CD5D000260627324665
:10266000DBF80030039403F40040002818BF002278
:1026700003A818BF012601930092FFF779FF039C7E
:10268000019B00EB8400D0F80042C3F3412C009A78
:102690003B0243EA8C03134304EA0A04234343EA5C
:1026A0004603C0F80032AEE7C5F80C45D1E7C5F8DF
:1026B0006445BFE7C5F86445AAE7C5F86845B9E7CA
:1026C000C5F86845A4E7C5F86C45A1E7C5F87045AD
:1026D000B0E7C5F86045ADE7C5F86045621CDBF8BA
:1026E000003090D0C3F30043002BA5D0012603A8EF
:1026F0000394FFF73DFF039B06FA03F38360324622
:10270000AEE7C5F86445E9E7C5F86845E6E7C5F80A
:102710006C45E3E76FF015004CE76FF0850049E783
:1027200041780000F0F0FCFF2DE9F04104460D4631
:10273000476803F0F5FF4FF0200888B9264B1B7857
:1027400073B16426606803F0B1FDF0B9012003F0B5
:1027500009FE013EF6D10021212004F07DF8F0E7CA
:10276000EFF31186314688F31288BFF36F8F6068EC
:1027700003F09CFDA8B986F31188BFF36F8FEFE7D4
:1027800086F31188BFF36F8FE5E7EFF311863146CB
:1027900088F31288BFF36F8F606803F087FD00280D
:1027A000EED0FB6900201D706368FA691B68C3F8EE
:1027B00044250122C3F84825C3F82001D3F820415D
:1027C000C3F85801D3F858019A6081F31188BFF318
:1027D0006F8FBDE8F08100BFDD1C0020F8B5054615
:1027E000002201210820FEF781FF0820FEF762FF8A
:1027F0006C680121E06803F08AFD6B681968236941
:10280000C1F82435A27D637D207D1343228B0243D2
:102810001343C1F86C356E68D6E9004313F0010329
:1028200042D02F6907F1080000F0C4FB2D4B9842FD
:1028300054D1387A04F10C0204F5907103F09EFD36
:10284000387A012707FA00F000F0AEFB0823C4F83D
:102850000035F369C4F844350023C4F84835A7604F
:10286000D4F85831002BFBD00026C4F800656B6803
:102870003146D86803F04BFD6D683146E8682C6836
:1028800003F045FD0823C4F800352A7A52B92B6AB3
:10289000C4F834350123C4F83835C4F81021D4F80D
:1028A000102123600020F8BD0822C4F80025F26939
:1028B000C4F84425C4F848350123A360D4F8203176
:1028C000002BFBD00023C4F82031D4F820310123A1
:1028D000E3604FF48073C4F80433C1E76FF0040081
:1028E000E1E700BF0000AD0B0123834070B5DC437E
:1028F0000B4AD2E8EF1F01EA0405C2E8E65F002EAA
:10290000F7D14FF4803282400648C0F80823BFF365
:102910005F8FBFF36F8F0B4214BF0120002070BD8B
:102920002C1A00200050015070B40E4922F07F464E
:10293000D1E90034D01AC31844F10004C1E90034CD
:10294000A6F50013B3F5400F09D2074B1B681A0A0E
:102950001B069C19054B42F10005C3E9004570BCFC
:1029600002F0B2B858050020301A0020600500209F
:10297000D9B101230D4A8340D2E8EFCF4CEA030CD2
:10298000C2E8E1CF0029F7D14FF48033084A8340F1
:10299000C2F80433074BD3E8AF3FC340DB0742BF65
:1029A0004FF40012044BC3F8002170472C1A00208A
:1029B00000500150281A002000E100E00D4B18687B
:1029C000010A0006BFF35F8F0B4BD3F804351818CC
:1029D00041F10001B3F5801F0AD2084BD3E900236F
:1029E000904271EB030303D210F1807041F10001BA
:1029F000704700BF301A00200050015060050020D1
:102A00002DE9F04F85B016461F4604469DF840A0BC
:102A1000FFF76AFF0190FFF7D1FFB04271EB0703A8
:102A200052D23B4B301A67EB0101984271F1000121
:102A30004DD2384B03EB0413D3E902239F4208BF66
:102A4000964258D04FF48038334908FA04F82046AB
:102A500026F07F4BC1F8488303F068FC4FF0030970
:102A6000584604F15005AD00ADB205F1502504F50E
:102A7000A87305F580350293029A20F07F4341F850
:102A80002230C1F84483D1F80435244AC01A0338EF
:102A900020F07F4090422ED9286868B1D1F80435E3
:102AA000A3EB0B0020F07F40B0F5000F039322D979
:102AB000204603F03BFC039BBAF1000F07D109EB62
:102AC000030009F10109D7E7BAF1000F09D06FF04F
:102AD000150520460199FFF74BFF284605B0BDE8D4
:102AE000F08F01230E4AA340D2E8EF0F1843C2E84B
:102AF000E10F0029F8D107490E982301C8500F9B18
:102B000001EB04120025C2E902675360E1E700BF50
:102B1000010080004805002000500150FDFF7F00AB
:102B2000281A00207FB500254FF0FF304FF0FF310D
:102B3000194C1A4B0226C4F80833C4F84833184B12
:102B4000C4F80855C3E902014FF480334FF4001272
:102B5000C4F80433134B0121C4F804631520C3F8EF
:102B600080212A46FEF7C2FD1520FEF7A3FD0123B2
:102B70000D4AA360236013600C4B0D4A0093284656
:102B80000023CDE90155FFF73BFF3046FFF792FAEE
:102B9000284604B070BD00BF0050015003000F0074
:102BA0004805002000E100E02C1A0020292900003F
:102BB000FFFF7F002DE9F7432E4BD3F80423900746
:102BC0000BD5D3F8042142B10022C3F804212A4ACC
:102BD000D3F80431136801331360264AD2F8043362
:102BE000D90326D5254BD3E8EF1F21F00100C3E818
:102BF000E40F002CF7D1CB0702D4D2F84031C3B197
:102C000000251C4CC4F84051D4F84031FFF7D6FEE3
:102C1000EFF31182202383F31288BFF36F8F184BD9
:102C2000D3E90267B042B94106D282F31188BFF3FB
:102C30006F8F03B0BDE8F0834FF0FF38D3E9001089
:102C40004FF0FF391D60C3E902894FF48033C4F8A7
:102C50004833C4F84051D4F8403182F31188BFF3AF
:102C60006F8F0029E5D0009032463B4628468847C2
:102C7000DFE700BF00500150301A0020281A002062
:102C80004805002030B5431C124C85B005D0844265
:102C9000A8BF0446012CB8BF0124FFF78FFE0E4BDE
:102CA0000C4DD3E90013401AB0F5000F0FD22218D3
:102CB000AA4228BF2A46002052180849CDE901003F
:102CC000009143F10003FFF79BFE05B030BD2A469B
:102CD000F1E700BFFFFF7F00580500202929000011
:102CE00008B5FFF76BFE024B1B68C01A08BD00BF9A
:102CF000580500204FF47F03D3F83021D3F8343146
:102D0000072A05D1023B032B02D8024AD05C704748
:102D1000002070476178000008B5FFF7EBFF58B15D
:102D2000784BD3F8202A3AB90D21C3F8201A012193
:102D3000C3F81C19C3F81C290022D30003F57F0334
:102D4000D3F80013013107D0D3F800130132D3F8C0
:102D50000433202A0B60F0D1FFF7CCFF002840F0AD
:102D6000B980FFF7C7FF40B1674B684AC3F8302509
:102D70004FF050230122C3F858254FF47F03D3F8B6
:102D80003021D3F83431072A09D1023B032B06D86E
:102D90005F4AD35C1BB100225E4BC3F84C25FFF7A2
:102DA000A9FF50B14FF05023D3F80024D00742BF01
:102DB0000022C3F81421C3F818214FF47F03D3F87D
:102DC0003021D3F83431072A09D14FF05023D3F8FA
:102DD0000024D10744BF6FF00102C3F80024FFF7BD
:102DE00089FF18B16522474BC3F80C274FF47F03C6
:102DF000D3F83021D3F83431072A16D1454BD3F814
:102E00002034002B11DA4FF050230322C3F8182589
:102E100001229A60D3F80421002AFBD00022C3F8D3
:102E200004210122DA60C3F818254FF47F03D3F898
:102E30003021D3F83431072A23D1023B032B02D8A7
:102E4000354AD35CEBB17E222E4B2F49C3F80C27B9
:102E5000C3F83C297F23314AC2F818310023C1F856
:102E6000043EC1F8083E01F54821C1F81031C2F80E
:102E70002431C2F82C3102F5FF1202F58052C2F85B
:102E8000A032274B9A6AD2072CD501211E4AC2F8DC
:102E90000415D2F800140029FBD09A6A22F001022E
:102EA0009A62194BD3F80024002AFBD00022C3F801
:102EB0000425D3F80024002AFBD0BFF34F8F194913
:102EC000194BCA6802F4E0621343CB60BFF34F8F23
:102ED00000BFFDE729220B4BC3F80C270322C3F8E0
:102EE0003C273EE70F49D1F88C2042F44062C1F8FC
:102EF0008C2019680D4AC2F84415DB69C2F84C35BC
:102F000008BD00BF00400050009003504400EFBED9
:102F10005D78000000200350597800000020005028
:102F20000080FF0000ED00E00400FA0500600050A2
:102F300030B50468ACB1B4FA84F30122C3F11F03C5
:102F4000DBB29A4024EA0202D0E8EF5FA54204D146
:102F5000C0E8EC2FBCF1000FF6D1EAD102480B70AB
:102F600030BD0248FCE700BF0000AD0B0200AD0B16
:102F700010B50368CB40DB0710D401238B400268F7
:102F800043EA0201D0E8EF4F944204D1C0E8EC1FBD
:102F9000BCF1000FF6D1F2D1014810BD0148FCE7A9
:102FA0000000AD0B0400AD0B014BC3F804057047E6
:102FB000007001500146014800F044B9380000207B
:102FC0000328F7B506462ED84FF05021364B374A26
:102FD00033F81000925DC1F8080300250A4401216E
:102FE00042F210744FF05027314B116033F8163015
:102FF0008E4203F150231D601B688DF8071008BF37
:103000000DF10705022E32D0032E40D0012E1CD028
:10301000D7F8183403F480333DB923B1012003F00D
:10302000A1F9013CF0D103B0F0BDD7F8182402F0AB
:1030300003022A70002BF6D09DF807000128F2D178
:1030400003F090F9013CDDD1EDE7D7F80C3403F43F
:1030500080333DB9002BE6D0012003F083F9013C19
:10306000F3D1E0E7D7F80C2402F00102E1E7D7F84A
:103070005C3403F480333DB9002BD4D0012003F03D
:1030800071F9013CF3D1CEE7D7F85C24ECE7D7F82F
:103090005434DB03C7D5002DCED1012003F062F9F3
:1030A000013CF4D1BFE700BF047300006578000065
:1030B000FC720000044B1A7922B9012218601A71BF
:1030C0000248704702487047341A00200000AD0BD8
:1030D0000C00AD0B08B50A4B1B6833B10520FEF799
:1030E000F7FA10B90520FEF7E5FA4FF05023012258
:1030F000C3F81825C3F81425C3F8802508BD00BF00
:10310000341A002010B5032845D8DFE800F0180273
:10311000554F00224FF480730121002003F150230A
:1031200018601C68012402F150221460284A1268B9
:10313000002A47D04FF05023C3F804132BE04FF080
:103140005023D3F81814D3F81824C90312D502F069
:103150000303022B05D0012B02D00020FFF730FF24
:1031600001234FF050220221C2F8183508224FF4F3
:103170008273D2E7D3F81424D207F1D5D3F81C24F4
:1031800002F00302013A012AE7D8114A12681AB183
:103190000222C3F8042310BDD3F80421002AFBD077
:1031A0000022C3F80421D3F80431F4E718224FF4C5
:1031B00090734FF48071B0E720224FF492734FF474
:1031C0000071AAE71A68002AFCD018601B68E2E7C1
:1031D000341A0020F8B54FF0502301250026D3F80B
:1031E0000443174F04B9F8BDB4FA84F0C0F11F00CE
:1031F000830003F580739BB203F1502305FA00F2BC
:10320000196892B224EA02040029EBD01E601B6800
:103210004FF05023022AC3F808230DD1D3F8181415
:10322000D3F8181401F00301012905D1C3F81825BA
:10323000C3F804239960D5E73B68C0B29847D1E74B
:10324000341A00200079024B03EB0010FFF770BE28
:1032500040000020036803F01F025B09026004D0F5
:10326000012B034818BF002070470248704700BF79
:103270000028845000258450034A4309D35C00F0A1
:103280001F001844C0B270476978000070B5054649
:10329000FFF7F2FF0C4C083034F810300E46DA0518
:1032A00008D5C3F3432304EBC302284654F8333054
:1032B00052689847A3682BB131462846E268BDE8BA
:1032C0007040184770BD00BF3C1A002008B5FFF7DA
:1032D000D3FF034B083033F81000400B08BD00BF8C
:1032E0003C1A002008B5FFF7C7FF034B083033F83E
:1032F0001000C0F3400008BD3C1A002008B5FFF7DD
:10330000BBFF034B083033F81000C0F3401008BD7A
:103310003C1A0020034611F0010010B5CCB20BD1CD
:10332000A207C4F340000DD5074A106A5860106226
:10333000003818BF012005E004490A6A1A600A62D1
:10334000002AEDD010BD00BF002884500025845015
:1033500010B5FFF791FF124A083032F81030D90546
:103360001CD5C3F3432123F4F85322F81030002076
:1033700002F10E0434F8023F13F4807F03D0C3F34C
:10338000432399420AD001303028F3D1002342F878
:1033900031300448BDE81040FFF7EABD10BD00BF62
:1033A0003C1A0020B41A0020F0B504460020012584
:1033B000064601F1A05101F55151104A89008A4297
:1033C0000BD10F4BD3F87C2132B10022C3F87C2102
:1033D000D3F87C3140F00040F0BD02F13043A3F55A
:1033E00051439B0805FA03F31C4204D0176817B138
:1033F0001660176818430432E1E700BF00D100509F
:1034000000D00050F7B506460846FFF735FF1A4FC3
:1034100000F1080537F815300C46DB072AD5304691
:1034200003F00DF82046FFF769FF58B12046FFF77B
:103430004DFF0022316800B201EB8003C3F8102574
:10344000C3F810252046FFF783FF002301A827F8C3
:1034500015300194FFF7FEFE019B00EB8300D0F8CE
:103460000022064B134043F00203C0F80032044828
:1034700003B0F0BD0348FBE73C1A0020F0F0FCFF6E
:103480000000AD0B0400AD0B2DE9F043164680465D
:1034900085B00846FFF7F0FE0C463168054609B3D3
:1034A0002046FFF71FFF18B12046FFF727FF10BB8C
:1034B00000230DF10F02CDE900338DF80E308DF8A9
:1034C0000F3020460B460DF10E0102F060FF4A4A14
:1034D00005F1080132F8113023F0020343F0010333
:1034E00022F8113073687BB320461F785968FFF7C4
:1034F000F9FE10B1E9B1414829E03F4A05F1080061
:1035000032F8103023F02003DB04DB0C22F81030FB
:1035100079B1032FEFD87168D1F804E0D8F8001022
:103520009EF800C001EB8C01A7B9C1F81075C1F875
:103530001075314A05F1080132F8113023F01C03EF
:1035400043EA870322F81130B3685BBB2C4805B00F
:10355000BDE8F083D1F810E543EA4C332EF0030EBA
:10356000C1F810E5D8F8001043F0200301EB8C0EF1
:10357000DEF8101522F8103021F44F3121F440719B
:10358000CEF810152102DEF8108501F47C5141EAD5
:10359000074141EA0801CEF8101502EB4C01A1F8F1
:1035A0007C40C6E72046D3E90067FFF7D1FE002E36
:1035B000CCD0114CD4E90023964203D19F4201D1D3
:1035C000002209E00F480DF10F01FFF7B1FC0C4B91
:1035D0009842BCD19DF80F2004EBC20308355F6010
:1035E00034F8153044F8326043EA422343F48073E0
:1035F00024F81530AAE700BF3C1A00200400AD0BE8
:103600000000AD0BB41A00202DE9F0430C468046B3
:1036100085B0204611461D46FFF72EFE064629B30B
:103620002046FFF75FFE18B92046FFF767FE18BB7C
:10363000334F06F1080937F8193013F01C0F02D088
:103640004B78012B18D001238DF80F3000234A1C32
:10365000CDE9001320468B1C0DF10F0102F097FEFF
:1036600037F8193043F0030327F81930002D44D000
:103670002046FFF737FE18B9224805B0BDE8F083B1
:10368000002295F800C0D8F800301D4F03EB8C03E2
:10369000C3F81025C3F8102506F1080237F81210F8
:1036A0004FEA8C0E21F02001C904C90C27F8121032
:1036B0006E7816B3D8F80000AD787044D0F81035A5
:1036C000360423F4991323F4F853C0F81035230279
:1036D00003F47C5306F440362D05D0F810E533434F
:1036E00005F480152B4341EA4C3143EA0E0341F0C7
:1036F0002001C0F8103527F812100348BDE700BFBD
:103700003C1A00200400AD0B0000AD0B014BC3E9D7
:10371000021270473C1A002010B508461446FFF705
:10372000EDFD50B10846FFF7A7FD054B083033F813
:10373000103004485B0B237010BD0348FCE700BF4A
:103740003C1A00200000AD0B0400AD0B70B50E4C10
:10375000064694F88C50A5B96022294604F1100061
:1037600003F034F93068C0F87C51D0F87C3140F374
:103770000730FDF79FFF0123044884F88C30A367CE
:1037800070BD0348FCE700BF3C1A00200000AD0BF1
:103790000C00AD0B034B93F88C00003818BF0120D0
:1037A000704700BF3C1A00200079024B03EB8000F9
:1037B000FFF7DEBB500000200079024B03EB8000D6
:1037C000FFF7B6BB50000020F7B505460846164681
:1037D000FFF794FD0C462968F0B12046FFF782FD03
:1037E0000746C8B92046FFF771FD04B2A40004F5EE
:1037F00080728F508A5829682144D1F8102542F0F0
:103800000102C1F810252EB10122296802FA00F345
:10381000C1F8043303B0F0BDD1F804332046002BC7
:10382000A4BF4FF00043C1F80433FFF725FD0F4B51
:10383000083033F81030C3F38203042B11D0052B6A
:1038400011D001A80194FFF705FD019A0369D34047
:1038500003F00103991C204603B0BDE8F04002F0DC
:10386000DFBD0321F7E70221F5E700BF3C1A002086
:103870002DE9F04F634B0821D3F8040387B0C0B2A1
:1038800040F00040FFF790FD051E2BDA00230321D6
:1038900004A8CDE90433FFF73DFD4FF000094FF0D8
:1038A000010BDFF864A10DF110081AF8013B57492C
:1038B000DA088A5C03F0070322FA03F3DA071CD460
:1038C00008F10408B9F1000F14D000214FF00040B6
:1038D000FFF76AFD032104A8FFF71CFD0028DCD1D7
:1038E00025F000450124474E494F002D75D107B002
:1038F000BDE8F08F4FF00109D7E7464B4B440093EA
:10390000D8F800100029DBD091FAA1F1B1FA81F1C9
:10391000009B1C7841EA44142046FFF7ADFC3C4B69
:10392000083033F81070C80818F8002001F00701BB
:103930000BFA01F122EA0102BB0808F8002003A8F3
:1039400001930394FFF786FC039A019B803250F8A1
:103950002220C7F382065B073746C2F3014221D516
:1039600020463946D6B2FFF791FC03A80394FFF72F
:1039700071FC039B803350F82330C3F301439E4214
:1039800007D10021204602F04BFD3146204602F0CF
:1039900047FD03A80394FFF75DFC039B0BFA03F3B9
:1039A0000362ADE7022A0CD10321204602F038FD64
:1039B00006F00503012BECD139462046FFF766FCE3
:1039C000E7E702212046019202F02AFD032EF3D000
:1039D000019A032ADDD1022EEDE795FAA5F3B3FA99
:1039E00083F304FA03F225EA020503F5A27256F8FE
:1039F000221007EB4303B3F87C00C1F30141FFF74A
:103A000045FC72E700D00050797800005472000045
:103A10003C1A00207978000038B5EFF31185202397
:103A200083F31288BFF36F8F064B9C6802F047FD4B
:103A300085F31188BFF36F8F2046BDE83840FDF74E
:103A4000DDBD00BFCC1A002038B50A4B53F820402A
:103A5000013053F82050A54200D838BD606830B11D
:103A6000037FDB0701D402F02DFD0834F3E7236860
:103A70009847FAE758720000012270B52A4B0320DC
:103A800086B01A70FFF7E0FFFEF744F9FDF7BEFAC3
:103A90000420FFF7D9FF254C254D2646AE4204F100
:103AA000300410D300F0F6FC204C224EAC4226D35A
:103AB00000F004FDFDF7DEF81F4A137B23F001033D
:103AC000137306B070BD54F80C3C059354F8103CC9
:103AD000049354F8143C039354F8183C029354F89C
:103AE0001C3C019354F8203C009354E90A2354E908
:103AF0000C0100F0C3FA54F8303C5E65CDE7D4E920
:103B00000A23B3F1FF3F08BFB2F1FF3F05D052EAED
:103B10000301206803D100F08DFD3034C6E7314643
:103B2000183000F03FFFF8E7DD1C0020306F000088
:103B3000207000001B6800001806002008B503482C
:103B4000034A0021121A02F0D4FC08BDD80100205B
:103B5000E01C0020B02370B5144E86B003FB006655
:103B6000134B012205930F23CDE903320023CDE946
:103B7000013314234FF4A0720E4D0F4903FB00557F
:103B8000044602FB00110D4B3046009500F076FA1A
:103B9000737B2C7423F004037373094B013403EB20
:103BA000C423EE606B6006B070BD00BF68050020E6
:103BB0007B780000CC1A002068380020BB6500002C
:103BC00068300020BFB50020FFF73EFF2A4B03F509
:103BD000006282F3088883F30A880024E023274DDB
:103BE000274F85F82230EC772C766C76AC7685F80A
:103BF00020406B6A43F4E0236B6285F82340FDF7B5
:103C000077FCFDF7E9FD4FF0FF33AB62EB62FDF7A8
:103C10006FFFFDF705FE1B4800F096FA02F03BFC33
:103C2000FEF75AF80120FFF70FFF0220164DFFF7AD
:103C30000BFF00F077FC154B15495D61154B4FF4F8
:103C40008062059301232846CDE90343CDE9014471
:103C50003B46009400F012FA06466A7B284622F0A2
:103C600004026A7302F09CFD2046FFF773FF3A4698
:103C700031462846FDF78EFD6830002000ED00E05B
:103C8000793A0000C806002018060020CC1A00204F
:103C9000A839002080780000002038B5054C064D7A
:103CA000AC4200D338BD204602F027FC0028F9DBE7
:103CB0001C34F5E7CC000020CC00002073B50C4686
:103CC000EFF31181202585F31288BFF36F8FC5684C
:103CD0005DB125602B68C360836901338361002077
:103CE00081F31188BFF36F8F11E052EA030603D10D
:103CF0006FF00B002560F3E7CDE9002302460830A2
:103D000000F00EFB18B9034B9B681B69236002B0DF
:103D100070BD00BFCC1A00202DE9F34104461746C0
:103D20001E46EFF31188202383F31288BFF36F8FB1
:103D3000C368334A7BB180689168884219D057EADA
:103D4000060318D188F31188BFF36F8F6FF00F004F
:103D500002B0BDE8F081916891F90E100133E36083
:103D600093682161A36088F31188BFF36F8F0020EF
:103D7000EEE72169F2E791F90E1090F90E306FF03D
:103D80007E029942A8BF19469142B8BF11468B42A4
:103D90002DDD02F01DFC054622464146CDE90076A8
:103DA000184800F0BDFA0028E1D0EFF31186202377
:103DB00083F31288BFF36F8FA068D0B123682169A5
:103DC0009C420AD04BB193F90E309942A8BF1946D4
:103DD0006FF07E039942B8BF194602F0F9FB40B17B
:103DE0003146084800F030FB6FF00A00B0E70025CC
:103DF000D2E7002DF4D186F31188BFF36F8FF3E77C
:103E0000CC1A0020DE1C0020F8B583680546002B84
:103E100040D0234A926893423FD1C368012B03D913
:103E2000013BC3600020F8BDEFF31187202383F32B
:103E30001288BFF36F8F0169806802F0C9FB2C689C
:103E4000A54207D10023C5E9023387F31188BFF3E8
:103E50006F8FE7E7002CF5D0D4E90032002613601D
:103E60005A60637BC4E9006623F002036373A660B3
:103E700004F1180002F02EFDAC6094F90E302046DB
:103E80002B61C4F8AC6002F08BFC3946054800F0A9
:103E9000DBFAC7E76FF01500C5E74FF0FF30C2E768
:103EA000CC1A0020DE1C002037B51146EFF3118537
:103EB000202282F31288BFF36F8F04689CB12368BD
:103EC000426823F003039442036008BF436001216A
:103ED000204602F001FC044685F31188BFF36F8F82
:103EE000204603B030BD51EA0302F5D000F10802CC
:103EF000CDE900131046294600F012FA0028EFD150
:103F0000014B9B681C69EBE7CC1A002070B5EFF3FE
:103F10001186202383F31288BFF36F8F0468A042B9
:103F20001BD0D4B1D4E90032002513605A60637B02
:103F3000C4E9005523F002036373A56004F118007F
:103F400002F0C8FC2046C4F8AC5002F029FC31460F
:103F5000BDE87040064800F077BAD0E902329A42D4
:103F600018BF0133836086F31188BFF36F8F70BD74
:103F7000DE1C002013B5EFF31181202484F3128896
:103F8000BFF36F8F846844B1013C846081F3118872
:103F9000BFF36F8F002002B010BD52EA030406D1B8
:103FA00081F31188BFF36F8F6FF00F00F3E7CDE956
:103FB00000230246014800F0B3F9ECE7DE1C0020C4
:103FC0002DE9F0410546EFF31187202383F3128892
:103FD000BFF36F8F0468A04222D00CB300262046A6
:103FE00002F091FB04F1180002F074FCB046204688
:103FF000C4F8AC8002F0D4FB2C680136A54208D08E
:104000003CB1204602F07FFB04F1180002F062FC94
:10401000EDE73946054800F017FA3046BDE8F08173
:1040200087F31188BFF36F8F0026F6E7DE1C0020B0
:104030002DE9F34105460C4617461E46EFF311885D
:10404000202383F31288BFF36F8F0846FFF7DCFE4F
:104050002A464146CDE90076074800F061F9054659
:104060004FF0FF324FF0FF332046FFF755FE284652
:1040700002B0BDE8F08100BFDE1C00202DE9F04F4A
:10408000984685B000F15803C0E91633129B00250D
:1040900003730423D61D26F007064373119B01EB1F
:1040A000060A0F46C0E90655514685608373C573FD
:1040B0000446DDF838B0DDF84C90FDF7B7F8109BFA
:1040C000073020F00700C4E92576C4F89C0002936D
:1040D0000F9BAAEB0006CDE900B3324643463946B2
:1040E0002046FDF73BFB0F9BC4E9188BA366109B92
:1040F0006565E366EFF31183202282F31288BFF334
:104100006F8F104F3A6A3C62226783F31188BFF3C6
:104110006F8FB9F1000F11D01F22494604F17400CE
:1041200002F05CFC84F89350BB680BB1D3F8A0306C
:104130003046C4F8A03005B0BDE8F08F84F8749024
:10414000F2E700BFCC1A002040F201138381002364
:1041500010B50446C0E9253300F052FD014B9C60C8
:1041600010BD00BFCC1A00206FF00A01094A936805
:10417000C3F8AC100849C3F8A8004B6843F080535B
:104180004B60002383F31188BFF36F8F9368D3F8DC
:10419000AC007047CC1A002000ED00E070B590F93B
:1041A0000D20437B002A36DBD90634D11B4C63F04B
:1041B0007F032246437352F8183FE169934207D1C7
:1041C000C0E900210860E06111E09942F8D01B6865
:1041D000002BF5D090F90E5093F90E60B542F4D053
:1041E000AE42F2DD5968C0E9003108605860A56947
:1041F000954200D005B9E568A3685A7BD20604D180
:10420000DA897F2A01D9AA6932B1AB4202D02846A5
:1042100000F008FB656170BD6361FCE7CC1A00200B
:1042200038B590F90D200146002A437B04DA03F0EB
:104230007F03437302F07AFA0D4D2A4652F8184F65
:10424000AB68944200D004B9EC688B4207D05A7B2B
:10425000D20604D1DA897F2A01D9A2692AB1A34200
:1042600002D0204600F0DEFA23466B6138BD00BF65
:10427000CC1A0020B3F1FF3F08BFB2F1FF3F03D0DB
:104280000249183000F08EBB704700BF1B68000069
:1042900070B590F90D200146002A437B04DA03F043
:1042A0007F03437302F042FA1C4C4B7B224663F0BF
:1042B0007F034B7352F8183FE069934207D1C1E97D
:1042C00000200160E16111E09842F8D01B68002BEA
:1042D000F5D091F90E5093F90E60B542F4D0AE428C
:1042E000F2DD5868C1E9003001605960A569A36832
:1042F000954200D005B9E5688B4207D05A7BD206BB
:1043000004D1DA897F2A01D9AA692AB1AB4202D045
:10431000284600F087FA2B46636170BDCC1A002056
:10432000F8B5DDE906670D4B0C46986811460C4A56
:104330001060EFF31182202282F31288BFF36F8F97
:104340009D68284602F004FA284632463B46FFF7AD
:1043500091FF2046BDE8F840FFF706BFCC1A0020C9
:10436000F01A0020F8B50446EFF31187202383F3F9
:104370001288BFF36F8F437B49B203F01F02002AFC
:104380000CBF0126002639D103F07F032D4D437366
:1043900002F0CCF92A46437B817363F07F034373B9
:1043A00052F8183F934227D1E869C4E9002004601D
:1043B000EC610FE09842F8D01B68002BF5D093F920
:1043C0000EC06145F6D08C45F4DD5968C4E9003172
:1043D0000C605C60AC69944200D004B9EC68AB68D6
:1043E0009C4202D0204600F01DFA6C6187F31188D0
:1043F000BFF36F8F3046F8BDE869DEE79B071ED537
:10440000856802F093F981732B689D4209D16B682E
:10441000C4E900531C606C60E8E76A689342F6D018
:104420001B68002BF3D093F90E209142F5D08A42FD
:10443000F3DD5A68C4E9003214605C60D6E781732A
:10444000D4E700BFCC1A002049B9EFF3058030B99A
:10445000054B5A699B689A4201D0FFF785BE81F3EC
:104460001188BFF36F8F7047CC1A0020034648B9FC
:10447000EFF3058232B9064A51699268914201D040
:10448000FFF772BE83F31188BFF36F8F704700BFD1
:10449000CC1A0020EFF31181202383F31288BFF39D
:1044A0006F8F054B9A68D37B013BD37381F31188DF
:1044B000BFF36F8F704700BFCC1A002070B5EFF3C9
:1044C0001186202383F31288BFF36F8F144DAB68DE
:1044D000DA7B0132DA732A4652F8184F944200D040
:1044E00004B9EC685A7BD20604D1DA897F2A01D953
:1044F000A2692AB1A34202D0204600F093F92346D4
:104500006B6186F31188BFF36F8FEFF31180202367
:1045100083F31288BFF36F8FBDE87040FFF7A6BF2B
:10452000CC1A0020024B03F11802C3E9062270479F
:10453000CC1A002070B5EFF31186202383F3128884
:10454000BFF36F8F1B4CA168E0690B68814214BFF9
:104550001A46002249680B605960A368E1692AB9CC
:10456000154AC3E900210B60E3610CE093F90E00EA
:1045700092F90E50A84218D0854216DD5168C3E961
:1045800000210B605360A5690B4B9D4200D005B91B
:10459000E568A3689D4202D0284600F043F96561B2
:1045A0003046BDE87040FFF7DFBD8A42D8D01268C0
:1045B000D5E700BFCC1A0020E41A0020F8B550EA75
:1045C000010306460C4603D1FFF7B4FF0020F8BDF7
:1045D000EFF31187202383F31288BFF36F8F124DFF
:1045E000124BA8681860FFF71BFEA86823463246E6
:1045F0000F49183000F0D6F9AA680446537B3846B4
:1046000043F004035373FFF7AFFDAB68D3E90A230C
:10461000B3F1004F08BF002AD8D102F083F9201A65
:1046200020EAE070D3E700BFCC1A0020F01A002087
:104630001B68000038B50446EFF31185202383F38F
:104640001288BFF36F8F437B5B070FD5183002F0E2
:1046500041F9637B204623F004036373FFF79EFD5B
:104660002946BDE838400448FFF7EEBE85F31188BF
:10467000BFF36F8F38BD00BFDE1C0020014B986870
:10468000704700BFCC1A00202DE9F8430446077B91
:10469000EFF31185202383F31288BFF36F8F437BE1
:1046A000190705D585F31188BFF36F8FBDE8F8832F
:1046B000D90943F008025DD14273A36813B12046C3
:1046C00002F03CF804F1180002F004F9A66D04F1C0
:1046D0005808B04511D04FF0000976B1304602F0CD
:1046E0002DF806F1180002F0F5F83046C6F8AC9047
:1046F000FFF754FDA66DB045EFD1DFF8C080D8F8C4
:1047000008309C423ED1EFF30589B9F1000918BF8A
:104710004FF00109D8F81860294A964200D00EB926
:10472000D8F80C60B34202D0304600F07BF8204647
:10473000C8F8146000F0CEF8B9F1000F02D021489B
:10474000FFF702FDD8F808309C4231D1EFF3058322
:1047500073BB227BD20718D42846FFF705FDFB0761
:10476000A4D5002383F31188BFF36F8F0423184669
:1047700002DF9BE703F07F0343F00803437301F07C
:10478000D5FF9AE74FF00009C4E785F31188BFF31E
:104790006F8F83F31188BFF36F8F0423184602DFF6
:1047A000EFF31180202383F31288BFF36F8FD4E7D8
:1047B00085F31188BFF36F8FD1E700BFCC1A0020BB
:1047C000E41A0020C80600200122044BC01A044B42
:1047D000C0105843034B1A54704700BF780700209D
:1047E000ABAAAAAADE1C0020C3897F2B12D80A4BD1
:1047F0001B6863B1094B90F90E201B689A4209DBD4
:10480000437BDB0606D1064BC31A18BF012303F016
:10481000010070470023FAE754000020F41A00203A
:104820006805002070B50E4B0E4C1E7C054606EB4D
:10483000460304EBC304204602F04CF800220A4B66
:1048400028469A55FFF7D0FF48B1084B2046BDE8EF
:1048500070401A680649013AD31700F0A3B870BD3A
:10486000CC1A002078070020DE1C00205400002015
:10487000C947000038B5EFF31185202383F3128870
:10488000BFF36F8F104B114A9C681068A04206D18D
:10489000FFF7C8FF85F31188BFF36F8F38BD002184
:1048A0001B7C11600A4AD35C002BF3D02046FFF733
:1048B0009BFF0028EED0637BDB0602D12046FFF78A
:1048C000E7FC2046E4E700BFCC1A0020F01A0020E5
:1048D000DE1C0020EFF31181202383F31288BFF345
:1048E0006F8F0A4A136A834207D11B6F136281F3E9
:1048F0001188BFF36F8F70471346002BF7D01A6FE4
:104900008242F9D1026F1A67F1E700BFCC1A00208A
:10491000074808B5074A0849121A01F0ECFDBDE83E
:1049200008400648064A0749121A01F0E4BD00BFD4
:1049300000000020D4010020A0780000000000202A
:1049400000000020A0780000024B1868984208BFC1
:104950000020704758000020034B1B680BB9FEF77E
:10496000BFB90020704700BFF81A002030B570B101
:104970000B4B5B6898420AD0036843B1D3E904212A
:10498000D0E90445121941EB0501C3E90421D0E93E
:10499000003213605A600023C0E9003330BD00BF0D
:1049A00058000020B3F1FF3F08BFB2F1FF3F2DE9EF
:1049B000F84F0446994615461F467BD08160EFF3B9
:1049C0001188202383F31288BFF36F8F013279F1AE
:1049D000FF33DFF8E8A020DBFFF7BEFFDAE90027AE
:1049E000013549F100092D1849EBE07306464FF0F7
:1049F0000109C4E90453AD1843EB0707FFF7A4FF0F
:104A00000346DFF8BCE0DEF804A0EBB9C4E900EA35
:104A1000CAF80040CEF8044028E06FF00103DAE95C
:104A200000125B1A4FF0FF3161EB02025B1B62EB7D
:104A30000902012B72F10001BCBF012300224FF0DB
:104A40000009C0E90432D9E7D3E9041CD4E9042001
:104A50008A4270EB0C0B24DA891A5A686CEB00005E
:104A6000C3E90410C4E9003214605C60FFF76CFF16
:104A700084420ED1134B1B685BB9B9F1000F02D110
:104A8000FFF76AFF0646304601F00DFF0021FEF7F2
:104A9000F9F888F31188BFF36F8F28463946BDE8CF
:104AA000F88F521A60EB0C009A45C4E90420ADD08F
:104AB0001B68AAE700252F46EFE700BF90070020FC
:104AC00058000020F81A00202DE9F047EFF3118577
:104AD000202383F31288BFF36F8FDFF8A0900026A6
:104AE000C9F800000027FFF72FFFDFF89480D9F8FE
:104AF0000030D8E900ECD91750B1D0E90442A34204
:104B000071EB020A1BDAE41A62EB0102C0E904420B
:104B1000002413EB0E034CEB01012046C8E90031E1
:104B2000C9F8004001F0BFFE2146FEF7ABF885F35F
:104B30001188BFF36F8FBDE8F047FFF79BBE14EB02
:104B40000E024CEBE473C0E90467C8E90023FFF7E9
:104B50000DFF85F31188BFF36F8F83689847EFF3DC
:104B60001185202383F31288BFF36F8FD9F80030AB
:104B70001B1BC9F80030FFF7E7FEB8E7F81A002062
:104B80009007002010B5EFF31184202383F31288DF
:104B9000BFF36F8FFFF7E0FE0346054AD2E900013D
:104BA000181841EBE37184F31188BFF36F8F10BDC8
:104BB000900700202DE9F04105460E46174601F00A
:104BC000AFFD30B9074B9B68D3F8A04014B9BDE8DE
:104BD000F081054C3B46324629462046BDE8F0416F
:104BE00001F0A4BECC1A0020CC0000200246002117
:104BF000014B024801F09ABE455C0000CC00002049
:104C0000014BC0F8A0307047CC0000200146024A9A
:104C10000020FFF7CFBF00BF455C000038B5064C51
:104C2000064DAC4201D3002038BD2046D4E9011224
:104C300001F09BFE1434F4E7CC000020E0000020DB
:104C400010B50A4C23681BB101232360002010BD5E
:104C500000F0F4F80028F7D00138072803D8044BF7
:104C600053F8200010BD034810BD00BFFC1A0020FF
:104C700070720000FE8FFFFFBFF34F8F0549064B98
:104C8000CA6802F4E0621343CB60BFF34F8F00BFEA
:104C9000FDE700BF00ED00E00400FA0530B44FF07E
:104CA000FE3200250B4B0C4C0C494968C3F800241C
:104CB000C3F80424C3F80824C3F80C24C3F8102450
:104CC000C3F81424C3F81824C3F81C24C4F80055EE
:104CD00030BC0847005084500040845060000020E1
:104CE000024BD0E90012C3E90012704760000020B7
:104CF00010B5044650B1636813F0685F05D0064AEA
:104D0000934202D000236260236010BD034B04482D
:104D10005B689847EFE700BF2C5F5CA9600000204C
:104D200090720000C8B143680D4A934213D013F04B
:104D3000685F0ED0012350E8002F194640E8001CA0
:104D40009CF0000FF7D1012AF5D0BFF35F8F002050
:104D5000704704487047044870476FF4E04070475C
:104D60002C5F5CA9E98FFFFFEA8FFFFF034680B14C
:104D7000426809498A420AD012F0685F05D0BFF341
:104D80005F8F002210461A6070470448704704483D
:104D900070476FF4E04070472C5F5CA9E98FFFFF1C
:104DA000EA8FFFFF10B5044620B10023034A2360B9
:104DB000626010BD0248FFF771FFF6E73A00003A63
:104DC000B872000070B5194CD0F804C00668C4F879
:104DD00004C0D0F808C0C068C4F808C0E06026600D
:104DE0000868134B134D18604868D5F818215860AF
:104DF000886812F0685F9860C8680969D8601961AE
:104E000012D000230C4A05F58A70C5F81431C5F894
:104E1000B831C5F81821C5F8BC21B047236805F59D
:104E2000DC70BDE87040184770BD00BF7C000020FA
:104E300068000020141B00202C5F5CA908B500F05E
:104E400011F830B900F010F838B9054AC2F80C0A68
:104E500008BD00F037F8032008BD042008BD00BFDE
:104E6000005084500020704710B5114800F048F8F9
:104E700000B110BD0F4800F043F80028F9D10E4CE6
:104E8000204600F03DF80028F3D10C4B0C481C6084
:104E900000F036F801460028EBD100F02DF804466A
:104EA00008B1204610BD00F03FF82046FAE700BFE9
:104EB000BC000020B8000020B4000020AC0000209E
:104EC000B000002008B5084800F024F8074800F0BA
:104ED00021F8074800F01EF8064800F01BF8BDE86E
:104EE000084000F00BB800BFBC000020B800002054
:104EF000B4000020B000002000207047704700BFC1
:104F000008B5034B02681B6810689847002008BD6D
:104F10007C00002008B5034B02685B681068984766
:104F2000002008BD7C00002070B5094C094D2069A7
:104F3000AB68984718B1084B08485B689847002150
:104F4000074AEB6811602069BDE87040184700BF50
:104F5000680000207C00002060000020DC7200005F
:104F6000101B00200EB470B589B005461C2200212C
:104F70000DAC01A854F8046B01F028FD012301A831
:104F8000224631468DF80630054B05950393009473
:104F900000F062FA09B0BDE8704003B0704700BF8E
:104FA0009B6B00002DE9F04F43688DB0154680469D
:104FB000029383789A0740F10D8100240E78002E29
:104FC00000F00A81252E0BD04B1C0393013441467F
:104FD0003046029B98470028C0F2F6800399EDE71F
:104FE0004E788B1C252E0393F0D00027B946BB4684
:104FF000BBF11F0F38D8A6F12003102B0AD8DFE829
:1050000003F02A0909300909092109090928092D8C
:1050100009091F00A6F13003092B33D92A2E37D1F5
:105020001BF0400F55F8043B40F08280002BA7BFD7
:105030004BF0200B9946C3F100094BF0280B01E01F
:105040004BF0010B039B13F8016B0393002ECFD1A0
:1050500030E04BF0020B4BF0040BF3E74BF0080B86
:10506000F0E74BF0100BEDE7BBF17F0F19D8A6F17D
:105070003003092BD2D81BF0400F03D00A2101FBCB
:105080000737DFE70A214BF0200B01FB0939D9E78D
:105090002E2E06D11BF0400F40F09E804BF0400BAF
:1050A000D0E76C2E31D02BD8682E36D06A2E3CD06B
:1050B0004C2E3AD0002F46F02003B8BF2BF0400210
:1050C000A3F16501BCBF00271FFA82FB022901D9A9
:1050D000612B2FD107350727DFF8ACA225F0070594
:1050E00008351BF0080F66D00AEB070B56465E45E5
:1050F00063D1A4EB0A0AA9EB070906EB0A026FE1E8
:10510000742E9FD07A2E9DD0D4E71BF0800F18BF4D
:105110004BF4007B4BF0800B94E71BF4807F18BFAF
:105120004BF4007B4BF4807B8CE74BF4207B89E7CE
:105130001F4687E7A6F16301122900F2F080DFE83D
:1051400011F013004F00EE00EE00EE00EE004F00F5
:10515000EE00EE00EE00EE00EE00FE00E900EE00D4
:10516000EE001B00EE00AF0055F8043B01270DF1E7
:10517000180A8DF81830B4E755F804AB834BBAF130
:10518000000F08BF9A461BF0400F504614BF394627
:105190004FF0FF3101F032FC0746A2E741462020E4
:1051A000029B984700280FDB013EB742F6D34C44E0
:1051B000B146A41B98E74E46F7E7414616F8010BA7
:1051C000029B9847002892DA98F8023043F00403D3
:1051D00088F802304FF0FF3420460DB0BDE8F08F64
:1051E0001BF0800F34D01BF4007F2CD0073525F046
:1051F0000705AA4669685AF8080B2BF01005002924
:10520000ADB237DA404245F4806561EB41010DF102
:10521000180B0A235A4601F0FDFBA0EB0B03019388
:105220006B0662D5019B25F001019F4289B240F3D4
:10523000A180002E00F0998015F0100240F09C80B3
:10524000BB460D4623E0AA465AF8040BC117D4E723
:10525000AA461BF4807F5AF8041B01D10846F5E7E3
:105260001BF4007F19BF48B241F3C01108B241F3EB
:10527000C031C2E750EA0103C9D11BF0400FC6D0CC
:10528000002FC4D12BF01102BB46019795B240F21A
:10529000064115EA01021CBF0BF1010B00222CE0B4
:1052A0002BF010020A231FFA82FB1BF0800C49D05E
:1052B0001BF4007115BF0735AA4625F007055AF8FB
:1052C000040B1EBFAA4669685AF8080B50EA01058C
:1052D00045D12BF016051BF0400FADB242D0002F88
:1052E00040D12BF01702019795B215F0100248D06B
:1052F000019B002E42D103F1010B29075AD4EB0781
:1053000006D5D9456FDDA9EB0B030199CB465F1894
:105310005B4649E04BF0100B10237826C5E7782B4D
:1053200004D1C6F1780343F01003BEE741462520BF
:10533000029B98470028FFF647AF023447E6082350
:105340000026B2E7AA461BF480715AF8040BBDD0C0
:105350001BF400711ABFC0B2614680B2B6E72BF0F1
:10536000060295B20DF1180B54E725F01105BB4666
:10537000ADB28CE70D46B8E73B460D4603F1020B94
:10538000BBE7DDF804B082E78C7800008578000088
:10539000CDE9043241462020029B98470028FFF6C1
:1053A00013AF049B059A01339945F1DCA4EB0B0183
:1053B0009B46CC180AB341463020029B98470028F0
:1053C000FFF602AF8EB901342744391B019B994285
:1053D00024DC1D4655BB019AA9EB0B095546224416
:1053E0001446914433E0019F92E70234414630462F
:1053F000029B98470028E7DAE6E640F206410D42B4
:10540000E2D015F0020F04F10104414614BF2B2035
:10541000202015F4806F18BF2D20E9E74146302089
:10542000029B013498470028CFDACDE606AB013D58
:105430004146585D029B98470028CBDAC4E64146B6
:105440002020029B013498470028FFF6BDAEA9EB4F
:105450000403002BF3DCC1E52DE9F04F804600206A
:1054600089B08246029207900D4615F8014BACB107
:10547000202C17D0A4F10903042B13D9252C17D005
:1054800007A9404601F01CFB031EC0F2CD80DBB231
:10549000A3420BD007AA414601F01CFB504609B0BD
:1054A000BDE8F08F07A9404601F01CFB2946DBE769
:1054B0004C788D1C252CE3D02A2C20D1CD1C8C7847
:1054C0000126002706E00A2246F0020615F8014BE5
:1054D00002FB0737A4F13003DBB2092BF3D916F036
:1054E000020F08BF4FF0FF376C2C33D009D8682C5F
:1054F00024D06A2C3CD04C2C35D034B9CEE70026D1
:10550000DFE7742C31D07A2C2FD021469E4801F051
:1055100014FB0028C2D016F00103039311BF4FF013
:105520000009029B53F8049B02936E2C23D1079A27
:1055300000234846009601F0EAFAB7E72C78682C79
:1055400003D046F020060135D7E746F030066C78E8
:105550000235D2E72C786C2C02D046F00406F2E734
:1055600046F00C06F3E746F00C0615F8014BC4E7CD
:1055700046F00806F9E7632C18D116F0020F08BFB1
:10558000012707A9404601F09BFA00284CDBB9F13E
:10559000000F01D009F8010B013FF2D1039B002B52
:1055A00084D10AF1010A5FFA8AFA7FE75B2C54D1B1
:1055B0002B7800245E2B06BF01354FF0010B4FF016
:1055C000000B07A9404601F07BFA00222E4605F1A8
:1055D000010E9446114616F8013BFBB1764508D002
:1055E0005D2B12D02D2B04D132B90B460122194666
:1055F000F1E7002A08BF194688424FF00002F6DBA7
:105600009842D8BF4FF0010CF1E7002805DBE345D5
:1056100011D107AA414601F05DFAACB998F8023001
:1056200013F00C0F3FF43AAFBAF1000F14BF50461D
:105630004FF0FF3033E7B9F1000F01D009F8010B4B
:10564000013F4FF00104BCD1B9F1000F01D1354643
:10565000A4E7002389F80030F9E707A9404601F0E4
:1056600041FA0028E0DB6F2C58D031D8642C57D099
:10567000693C18BF0124240107A9404601F020FA23
:105680002B2803D02D2809D146F04006013FC5D074
:1056900007A9404601F014FA0028BFDB30286ED17C
:1056A0007B1E049306D007A9404601F009FA0028A2
:1056B000049B37DA0027BB46730602D57F426BEBAB
:1056C0004B0B3A465B464846009601F020FA65E7E8
:1056D000732C0BD0752C0CBF0A241024CCE7B9F125
:1056E000000F01D009F8010B013F0FD007A9404678
:1056F00001F0E6F9002809DB202803D0A0F1090316
:10570000042BECD807AA414601F0E4F9B9F1000FE7
:105710003FF444AF002389F800303FE70824ABE7AB
:105720000A24A9E740F0200246F08006782A0ED12C
:1057300034F010020ED1BB1E0493BBD007A9404623
:1057400001F0BEF90028049BB4DB102402E0002C19
:1057500008BF08240027BB463928024682BF00F153
:10576000FF3242F02002263A303A94420ED807AA7D
:10577000414601F0AFF932067FF550AF9CE73B465A
:10578000002CE7D10A24E5E794780000A4FB077118
:1057900046F08006D71904FB0B1141F1000B013BC9
:1057A000CDE9043388D007A9404601F089F90028E3
:1057B000049BD1DA80E700BF704703460A46F0B485
:1057C0001979DB8800681343DC028768066906D50F
:1057D00013F4402F03D0DA0748BF83F44023012598
:1057E00034688D4023F48012DB074CBF2C43AC435C
:1057F00034603B68F0BC1847034610B40068197960
:1058000083689C6974B1012302698B401268A446C5
:10581000134214BF4FF000734FF080634FF0A0723B
:1058200010BC60476FF0570010BC704703460A4633
:1058300019790123006803FA01F103691B68194211
:1058400018BF82F0010212B18368DB6818478368D1
:105850001B69FBE7FEF7B4BB38B5002120EAE07412
:105860004FF4004540F2E7304FF47A720023C4FB56
:105870000501FAF76FFCBDE8384000F0EDBF00F01D
:105880000BBE836800EBC101B3F5004F2CBF51F88C
:10589000220031F81200704700EBC1018068B0F5BA
:1058A000004F2CBF41F8223021F8123070470122FE
:1058B00008B5FFF7E6FFD04008BD836800EBC101E3
:1058C000B3F5004F08D34B681AB143F001034B60A6
:1058D000704723F00103FAE74B881AB143F0010344
:1058E0004B80704723F00103FAE753000122FFF7D2
:1058F000D3BF8368B3F5004F34BF04230823C91A0C
:10590000081AC0087047B0F5004F34BF04230823BD
:10591000481C0833A0EBD300B0FA80F0C0F11F00A0
:1059200070472DE9F041174603220E460446FFF763
:10593000A8FF8642054607F104080AD10122E36860
:10594000BA4023EA0203E360002344F82830BDE8AC
:10595000F081314602222046FFF793FF06462B4690
:1059600001460322204644F82850FFF795FF3346AE
:1059700029462046BDE8F0410222FFF78DBF70B5F1
:105980000D4686680446FFF792FFB6F5004F0146C4
:1059900001D3012809D03046FFF7B5FF294602465A
:1059A0002046BDE87040FFF7BCBF70BD2DE9F04751
:1059B00005468068FFF7A7FF05EB800ADAF810902C
:1059C00088460646B9F1000F1BD00327DAF81040CD
:1059D00028462146FFF76BFF404507D33246214654
:1059E0002846FFF79EFF2046BDE8F08703222146A8
:1059F0002846FFF746FF013FCAF8100001D0814555
:105A0000E4D14FF0FF34EB680136B4401C40EAD0DB
:105A100094FAA4F2B2FA82F2131D55F82340DEE79D
:105A20002DE9F04114460E460546FFF740FFA4EB72
:105A30000608371B0744424631462846FFF755FF04
:105A40003A4621462846FFF750FF434600222146AA
:105A50002846FFF721FF21462846FFF728FF3B464F
:105A6000211800222846BDE8F041FFF715BF2DE9B7
:105A7000F041164604460F46FFF719FF314605462A
:105A80002046FFF714FF05442A4639462046FFF713
:105A90002CFF31462046FFF70AFF2B463118002223
:105AA0002046BDE8F041FFF7F7BE2DE9F0410D4675
:105AB00086680446FFF7FBFEB6F5004F014601D3AA
:105AC000012832D03046FFF71EFF04EB80010E693B
:105AD00096B90122E36882401343E36002220D611C
